:020000040800F2
:10000000701D002045010008DB160008431600089B
:10001000D91600087D030008151F00080000000025
:10002000000000000000000000000000F9190008B6
:10003000BF040008000000005D170008FD1900085B
:100040005F0100085F0100085F0100081118000847
:100050005F0100085F0100085F0100085F01000800
:100060005F0100085F0100085F0100085F010008F0
:100070005F0100085F0100085F0100085F010008E0
:100080005F0100085F0100085F0100085F010008D0
:100090005F0100085F0100085F0100085F010008C0
:1000A0005F0100085F0100085F0100085F010008B0
:1000B0005F010008C11A00085F0100085F01000825
:1000C0005F0100085F0100085F0100085F01000890
:1000D0005F010008FD1C0008411D00088D1D00087F
:1000E0005F0100085F0100085F0100085F01000870
:1000F0005F0100085F0100085F0100085F01000860
:100100005F0100085F0100085F0100085F0100084F
:100110005F0100085F010008F91A00085F0100088C
:100120005F0100085F0100085F0100085F0100082F
:10013000DFF80CD000F094F8004800477123000865
:10014000701D00200648804706480047FEE7FEE78E
:10015000FEE7FEE7FEE7FEE7FEE7FEE7FEE7FEE777
:10016000791A0008310100082DE9F05F05460020EA
:1001700092469B4688460646814640241BE0284618
:1001800041464746224600F05AF853465A46C01A9E
:10019000914110D311461846224600F041F82D1A1D
:1001A00067EB01084F4622460120002100F038F895
:1001B00017EB00094E41201EA4F10104DFDC484684
:1001C00031462A464346BDE8F09FD2B201E000F82E
:1001D000012B491EFBD270470022F6E710B51346EB
:1001E0000A4604461946FFF7F0FF204610BD30B519
:1001F00005462A460B4612F8010B13F8014B08B1CD
:10020000A042F8D01CB1002802D06D1CF1E72846AE
:1002100030BD421C10F8011B0029FBD1801A704729
:10022000202A04DB203A00FA02F1002070479140B6
:10023000C2F1200320FA03F3194390407047202AAB
:1002400004DB203A21FA02F00021704721FA02F380
:10025000D040C2F120029140084319467047000087
:10026000064C074D06E0E06840F0010394E8070003
:1002700098471034AC42F6D3FFF75EFF882400089D
:10028000A824000870B58C1810F8015B15F007035E
:1002900001D110F8013B2A1106D110F8012B03E01F
:1002A00010F8016B01F8016B5B1EF9D12B0705D427
:1002B0000023521E0DD401F8013BFAE710F8013B70
:1002C000CB1A921C03E013F8015B01F8015B521E8C
:1002D000F9D5A142D8D3002070BD00002DE9F84324
:1002E0001D4C07460026207815468846012801D077
:1002F00088B12EE0394619A001F020FE3846FFF7FC
:1003000088FF0146384600F09DF9267000F026FA75
:10031000C4E902011DE000F021FAD4E90223801AA9
:1003200061EB0301401BB14111D2684600F002F9B4
:10033000054601460DA001F001FE41462846FFF7A3
:1003400056FF30B10120207000F0EEF801E00220ED
:1003500020702078BDE8F883F000002074686520E4
:10036000636D64202573200D0A0000007468652009
:100370007265762025730D0A00000000FEE701F08B
:1003800057BA00002DE9F0413D4806260327817841
:10039000FF25002400F1100307296BD2DFE801F0EC
:1003A000040F1D2A35425900054693E80700FFF760
:1003B00095FF012840D16C700DE06C7022E030494F
:1003C00005461031D8684A690969FFF787FF012897
:1003D00032D16C700220A8704FE0294905461031D7
:1003E00098690A6AC969FFF779FF012824D16C70FE
:1003F000AF7042E0224906461031586ACA6A896ADB
:1004000009E074700220BDE8F0811D4906461031F4
:10041000186B8A6B496BFFF761FF012820D0022817
:1004200021D02AE0164905461031D86B4A6C096C78
:10043000FFF754FF012802D0022803D01DE06C70A2
:10044000AE701AE06878401CC0B268700328B4D05F
:1004500013E00B4906461031986C0A6DC96CDAE757
:100460007470B57009E07078401CC0B270700328D9
:10047000C7D002E003A001F061FD0020C3E7000047
:10048000F000002061696C6920636F6E7465787498
:100490000D0A000030B590F840500124AC40C56B07
:1004A0006C60046863604368102B036803D0996034
:1004B0000068C26030BD9A600068C16030BD70479E
:1004C00070B5054600244FF47A7603E0304600F01C
:1004D00005F8641CAC42F9D370BD0000044A5168B1
:1004E00000EBC000C00053685B1A8342FBD3704727
:1004F000001000E00A48016821F080710160016885
:1005000041F0807101600748016821F0010101603C
:10051000016841F001010160002141607047000065
:10052000FCED00E0001000E0C8210148FFF754BED8
:100530004807002010B504460248FFF76AFE2080F5
:10054000004810BD4807002030B5194885B08169C2
:1005500041F001018161816901F0010104911549B6
:100560004A6822F0300242F0E06242F030024A6013
:10057000816941F02001816180690F4D00F0200008
:10058000049002200190C001032400906946039466
:10059000284600F083F900200190681500900120A2
:1005A000CDE902046946284600F078F905B030BD6F
:1005B00000100240000001400014014010B5FFF798
:1005C000C3FF00F049F8BDE8104000F001B800009A
:1005D00038B51948C16941F48021C161C069184C1E
:1005E00000F480200090154820604FF4E1306060F6
:1005F0000020E0600C21A060C4E90401E061204615
:1006000000F041FF01221146272000F08FFA272039
:1006100000F07FFA2068C16841F01001C16004F168
:10062000400060634462BDE83840C822A0F5847190
:10063000403800F05BBF000000100240004800405E
:10064000100800208AB201464FF6FF73014800F0FF
:100650009BBF0000100800200D4882B0416941F0A6
:100660000101416140690B4900F0010000900A4816
:100670000160002180224160C0E9021201614161F4
:1006800081614FF44051C16102B000F091B80000A7
:10069000001002403000024050080020274A08B5F0
:1006A0002749904207D1886940F004008861886931
:1006B00000F0040009E0234A904208D1886940F024
:1006C00008008861886900F00800009008BD1E4A93
:1006D000904207D1886940F010008861886900F075
:1006E0001000F2E7194A904207D1886940F02000D3
:1006F0008861886900F02000E7E7154A904207D139
:10070000886940F040008861886900F04000DCE7BB
:10071000104A904207D1886940F08000886188695A
:1007200000F08000D1E70C4A9042CFD1886940F4B4
:1007300080708861886900F48070C6E70008014015
:1007400000100240000C0140001001400014014064
:1007500000180140001C0140002001400149886848
:10076000C96870472000002010B590F821100022C1
:10077000022905D00421816380F82020012010BDCA
:1007800001680B6823F00E030B6001680B6823F00F
:1007900001030B6090F84030C46B012101FA03F3B0
:1007A000636080F8211080F82020104610BD000002
:1007B00030B560B11A4B026814219A4209D2194B24
:1007C0001344B3FBF1F18900016417490AE00120E9
:1007D00030BD134B5B421344B3FBF1F1890001645C
:1007E0000F490839C163022180F82110136843F6CC
:1007F000F0718B43F0E901142143D0E902452C4309
:1008000021430469214344692143846921431943F5
:10081000116000214163012242770177084630BD13
:1008200008040240F8FFFDBF0000024070B5044616
:1008300090F82000002501280CD0012084F8200029
:1008400094F821600020012E06D084F820000225B3
:10085000284670BD022070BD022684F82160A06386
:100860002068066826F0010606602046FFF712FEA3
:10087000E06A00282068016802D041F00E0106E01D
:1008800021F0040101602068016841F00A01016063
:100890002068016841F001010160D9E72DE9F84FB6
:1008A000DFF8C891002409F1040A0AF1040B234679
:1008B0000F270BF1040ED1E00125A54006EA050241
:1008C000AA4276D1DFF8A8C14E68A6EB0C086645AF
:1008D0002BD00DDC032E34D005DC36B3012E19D01D
:1008E000022E2FD11BE0112E16D0122E2AD119E084
:1008F000B8F5881F19D006DCB8F5803F15D0B8F5DB
:10090000801F1FD111E0B8F5001F0ED0B8F5041FED
:1009100018D10AE0CB6815E0CB681B1D12E0CB684C
:1009200008330FE0CB680C330CE08B682BB1012B44
:100930004FF0080303D0456104E0042302E00561A1
:1009400000E00023FF2A01D8064601E000F104067A
:100950004FEA840501D9A5F12005D6F8008007FAF1
:1009600005FC28EA0C0803FA05F548EA0508C6F86C
:1009700000804D68ED0070D53E4DAE6946F0010631
:10098000AE61AD6924F0030605F0010500953A4D0E
:1009900006EB050CDCF80850A607360F07FA06F838
:1009A00025EA0805DFF8D480404503D14FF0000860
:1009B00025E052E0DFF8C880404502D14FF0010841
:1009C0001DE0DFF8C080404502D14FF0020816E07C
:1009D000DFF8B480404502D14FF003080FE0DFF8A4
:1009E000AC80404502D14FF0040808E0DFF8A08059
:1009F000404502D14FF0050801E04FF0060808FA23
:100A000006F848EA0508CCF808804D68D9F8006077
:100A1000ED034D4601D5164300E096432E604D6828
:100A2000DAF80060AD03554601D5164300E0964361
:100A30002E604D68DBF80060ED025D4601D516437F
:100A400000E096432E604D68DEF80060AD0275460A
:100A500001D5164300E096432E60641C0A681646D2
:100A6000E2407FF429AFBDE8F88F000000040140A8
:100A70000000111000100240000001400008014079
:100A8000000C01400010014000140140001801401A
:100A9000001C01400AB1016170470904FBE7000036
:100AA000014880687047000034000020074810B5F6
:100AB000016841F010010160032000F057F80F2099
:100AC00000F006F800F024F8002010BD00200240DD
:100AD00070B50D4D04464FF47A712878B1FBF0F0F3
:100AE0000A490968B1FBF0F000F077FC48B9102C16
:100AF00007D200222146501E00F018F800206C603A
:100B000070BD012070BD00003400002000000020F6
:100B10007047002809DB00F01F02012191404009C5
:100B2000800000F1E020C0F800117047F0B40E4BD7
:100B30001B680C46C3F30223C3F10705042D00D93B
:100B40000425191D072901D2002300E0DB1E012620
:100B500006FA05F1491E214099409E40761E164036
:100B60003143F0BC01F0FAB90CED00E0064900F0A9
:100B7000070208684FF6FF03184040EA0220034AC4
:100B800010430860704700000CED00E00000FA051B
:100B9000014901200862704700000E4210B52CA4E4
:100BA00001461DCC86B08DE81D002DA02D4C00689F
:100BB0000490002004292FD00BDC01292FD002291A
:100BC00028D100F071F96168C1F38131491C4900F5
:100BD0001EE0082920D010291CD161682268D201AA
:100BE00018D5C1F38342C9031DF8020009D5616815
:100BF00004AAC1F34041515C1B4AB2FBF1F14843E6
:100C000001E01A4948436168490203D440000321C6
:100C1000B0FBF1F006B010BD00F056F9FAE7226A19
:100C2000C2F30121012903D1920701D5C803F1E7DD
:100C3000022905D1626A920702D549F64040E9E7E8
:100C40000329E7D121688903E4D54FF22440E1E785
:100C500002030405060708090A0B0C0D0E0F1010FD
:100C6000010200000010024000127A0000093D005D
:100C70002DE9F84305460078354CC00754D0E069AB
:100C80000026C00008D4E06940F08050E061E069CF
:100C9000012600F0805000902E480168C90512D44A
:100CA0000168804641F480710160FFF7F9FE074654
:100CB00005E000BFFFF7F4FEC01B642823D8D8F876
:100CC0000000C005F6D5206A10F4407021D0A98834
:100CD00001F4407181421CD0206A1F49012220F496
:100CE00040700A6000220A602062C00711D0FFF73E
:100CF000D7FE074641F2883808E000BFFFF7D0FE74
:100D0000C11B414502D90320BDE8F883206A800752
:100D1000F4D5206A696820F44070084320621EB14F
:100D2000E06920F08050E0612878800705D5606890
:100D3000A96820F44040084360602878C00605D5C3
:100D40006068696920F48000084360600020DBE788
:100D50000010024000700040400442422DE9F0477C
:100D60000F46050061D0434E306800F00700B842DE
:100D700009D2306820F0070038433060306800F056
:100D80000700B84251D128683B4C810712D5400773
:100D900003D5606840F4E06060602878000703D500
:100DA000606840F4605060606068A96820F0F000FE
:100DB000084360602878C00728D06868012810D0F0
:100DC0002168022810D0890700292EDA616821F0F5
:100DD000030101436160FFF763FE804641F28839F9
:100DE0000DE021688903EFE78901EDE7FFF758FE81
:100DF000A0EB0801494502D90320BDE8F0876068EF
:100E0000696800F00C00B0EB810FEFD1306800F0A2
:100E10000700B8420BD9306820F007003843306033
:100E2000306800F00700B84201D00120E5E72878DB
:100E3000400705D56068E96820F4E0600843606019
:100E40002878000706D56068296920F4605040EAD8
:100E5000C100606000F038F86168084AC1F303110E
:100E6000515CC8400649086006480068FFF730FE3C
:100E70000020C2E70020024000100240D8230008F2
:100E80000000002038000020044805490068496837
:100E9000044AC1F30221515CC840704700000020A1
:100EA00000100240E823000804480549006849682A
:100EB000044AC1F3C221515CC840704700000020C1
:100EC00000100240E823000812A185B00FC98DE888
:100ED0000F0014A0144A006804905168134801F0F0
:100EE0000C03042B10D0082B0ED1C1F38343C9038C
:100EF0001DF803000AD5516804AAC1F34041515CB2
:100F00000A4A5043B0FBF1F005B070470849484326
:100F1000FAE7000002030405060708090A0B0C0D96
:100F20000E0F1010010200000010024000127A00A3
:100F300000093D002DE9F84F040070D02078C04D25
:100F4000C00749D06868C0F38100012807D06868ED
:100F5000C0F38100022809D16868C00306D528685B
:100F6000800339D560680028E7D035E06068B0F5C7
:100F7000803F0BD010B1B0F5A02F11D0286820F41D
:100F800080302860286820F4802002E0286840F43F
:100F900080302860606890B1FFF782FD06460AE065
:100FA000286840F480202860F0E700BFFFF778FD54
:100FB000801B642873D828688003F7D50CE0FFF7FE
:100FC0006FFD064605E000BFFFF76AFD801B642841
:100FD000F0D828688003F7D420789A4E80074FF025
:100FE00001094FF0000839D5686810F00C0F07D0E0
:100FF0006868C0F38100022809D16868C00306D47C
:101000002868800714D52069012808D110E02069DC
:10101000B0B1C6F80090FFF743FD074605E00AE1CE
:10102000FFF73EFDC01B0228C4D828688007F7D50B
:101030002868616920F0F80040EAC10028600DE0EE
:10104000C6F80080FFF72CFD074604E0FFF728FDF7
:10105000C01B022823D828688007F7D4207800070F
:101060002CD57948A169D9B1C0F80090FFF718FDD7
:10107000074604E0FFF714FDC01B02280FD8686A7A
:101080008007F7D571484FF4FA510068B0FBF1F0D2
:10109000009000BF0098411E0091FAD20EE080E05F
:1010A000C0F80080FFF7FCFC074604E0FFF7F8FCFF
:1010B000C01B022875D8686A8007F7D420784007DB
:1010C00060D5E8690027C00008D4E86940F0805086
:1010D000E861E869012700F0805000905C480168F1
:1010E000C90513D40168834641F480710160FFF79C
:1010F000D7FC824606E000BFFFF7D2FCA0EB0A0057
:1011000064284ED8DBF80000C005F5D5E06801285A
:101110000AD008B1052813D0286A20F001002862FF
:10112000286A20F0040002E0286A40F001002862EA
:10113000E06841F2883B98B1FFF7B2FC82460BE0D1
:10114000286A40F004002862EEE700BFFFF7A8FC21
:10115000A0EB0A0159455AD8286A8007F6D50CE059
:10116000FFF79EFC824605E0FFF79AFCA0EB0A0120
:1011700059454CD8286A8007F6D41FB1E86920F099
:101180008050E861E06988B36968C1F38101022990
:1011900044D00228C6F8608004D0FFF781FC0446E2
:1011A00038E034E0FFF77CFC074604E0FFF778FC0A
:1011B000C01B02282BD828688001F7D4206AB0F51C
:1011C000803F05D16868A16820F40030084368605A
:1011D000D4E908010843696821F474110843686080
:1011E000C6F86090FFF75CFC044606E025E000BF0F
:1011F000FFF756FC001B022809D828688001F7D5A4
:101200001BE000BFFFF74CFC001B022802D90320A3
:10121000BDE8F88F28688001F4D40EE00128F7D0EB
:101220006868226A00F48031914204D1616A00F456
:101230007010884201D00120EAE70020E8E70000B2
:1012400000100240000042428004424200000020A0
:1012500000700040024850F8210080B27047000042
:10126000006C0040024800EB810091B201607047C1
:10127000006C004070B5040003D0607C002610B103
:1012800005E0012070BD2674204600F043F80220DE
:101290006074204600F03FF8042578BB204600F03B
:1012A00081FA58BB2068416821F007014160A068BD
:1012B00020B11748016821F0010101601448001FA6
:1012C0000168A26821F46071114301606068411CEB
:1012D00004D10120FFF762FC80B1401E21688A68BA
:1012E00022F00F0242EA10428A602168CA6860F365
:1012F0000F02CA60204600F06FFA08B16574C0E7BB
:10130000E67301206073A0736074002070BD00005C
:10131000306C0040704770B504000AD02068416806
:1013200021F008014160FFF7BBFB05464FF47A76D8
:1013300008E0012070BDFFF7B3FB401BB04201D9AC
:10134000032070BD206840680007F4D5002070BD00
:1013500070B5040004D094F85100002510B106E0E7
:10136000012070BD84F85050204600F035F802206E
:1013700084F851002068016821F040010160D4E93F
:1013800001010843D4E9031211430843616908438A
:10139000218B01F400710843E1690843216A084385
:1013A000A16A084321680860A069042101EA10408D
:1013B00021684860A06AB0F5005F02D12168E06A48
:1013C00008612068C16921F40061C161656501207F
:1013D00084F85100002070BD704710B5401EB0F178
:1013E000807F01D3012010BD4FF0E02460610F2108
:1013F000601700F0B3FD0020A061072020610020ED
:1014000010BD0246002041B1042909D008290AD0A4
:101410000C2901D11068006C70471068406B704750
:101420001068806B70471068C06B704710B5044639
:101430000068416994F83920C1F3C011212A0BD109
:1014400051B1416921F080014161206B08B1FFF782
:101450008BF9204600F0BAFB2068416994F83A20E5
:10146000C1F38011222A0BD151B1416921F0400111
:101470004161606B08B1FFF777F9204600F098FBF7
:10148000002010BD704770B5040004D094F83900F6
:10149000002510B106E0012070BD84F838502046C8
:1014A00000F022F8242084F839002068C16821F473
:1014B0000051C160204600F093FB2068016921F4CF
:1014C000904101612068416921F02A014161206851
:1014D000C16841F40051C160E563202084F83900FF
:1014E00084F83A00002070BD70470000F8B504464B
:1014F00090F83A0020283CD1C1B3BAB394F8380030
:10150000012836D0012084F83800A162A285002588
:10151000E563222084F83A00636B17489862636B96
:101520001648D862636B16481863606B13464563B0
:101530000846666B216802463046091DFFF776F9BA
:10154000206801684168009184F83850C16841F40E
:101550008071C1602068416941F0010141612068EA
:10156000416941F0400141610020F8BDFFE70120E1
:10157000FBE70220F9E700006B1B0008A71B00082F
:10158000211B0008704770472DE9F843044690F886
:1015900039001F4616460D46202850D1A5B19EB1F0
:1015A00094F8380001284AD0012084F838004FF020
:1015B0000008C4F83C80212084F83900FFF770FA55
:1015C000A6848146E68426E00120BDE8F883E08C0D
:1015D000401EE084A0684B46B0F5805F4FF00002EB
:1015E0004FF080012046009703D000F055FBE8B98A
:1015F0000DE000F051FBC8B928882168C0F308004D
:101600004860206908B16D1C05E0AD1C03E021684D
:1016100015F8010B4860E08C0028D8D14B46002219
:1016200040212046009700F037FB08B10320CCE7AB
:10163000202084F8390084F838800020C5E7022093
:10164000C3E7FEE7F0B50F4885B0816941F00801B6
:1016500081618069112400F0080004904020002579
:1016600003268DE87100084F69463846FFF716F9E2
:1016700080208DE8710069463846FFF70FF905B004
:10168000F0BD000000100240000C01402DE9FF41B8
:101690000024104D01274FF0020800BF05EBC406DF
:1016A0007068FEF7FBFF019755F83400CDF80C8009
:1016B000009069467068FFF7F1F835F834000122B0
:1016C00081B27068FFF7E6F9641CE4B2032CE5D33D
:1016D000BDE8FF8108000020FEE77047F0B4A0F5E8
:1016E0003852E13A40F2CF731A499A4202D20122AB
:1016F0000A7002E00A78002A2AD0174A4C78A0F62D
:10170000350602EBD4031D786D081D70C72E07D374
:1017100040F2E736C938B04202D245F08000187076
:10172000641CE0B24870202812D100204870517823
:101730001078C943C9B288420AD1D0789178C043A1
:10174000C0B2814204D1F0BC0348703000F007B849
:10175000F0BC70470400002058010020704730B5ED
:10176000C36804685A1CB2FBF4F504FB15228468B4
:10177000944201D1032030BD4468E154C26000208E
:1017800030BDF0B515460E460746002406E0315D33
:101790003846FFF7E4FF032802D0641CAC42F6D3BE
:1017A0002046F0BD70B50446FFF77AF905464FF4C0
:1017B0007A7606E0FFF774F9401BB04201D90320A6
:1017C00070BD206840688006F4D52068416841F00B
:1017D00010014160002070BD70B50446006841688A
:1017E00021F010014160FFF75BF905464FF47A766E
:1017F00007E000BFFFF754F9401BB04201D90320B6
:1018000070BD206840688006F4D5002070BD0000DF
:10181000054800684168C90705D06FF001014160C3
:101820000249012008707047340700203000002072
:10183000F0B5394C91B0E06940F00060E061E069DA
:1018400000F000600090E06940F08050E061E069E5
:1018500000F080500090FFF79BF90126A015CDE91C
:101860000A602F4D2D483146286047F6FF706860AA
:101870002846FFF7EFFC45F25007B8423CD0E0693C
:1018800040F00060E061E06900F000601090E06905
:1018900040F08050E061E06900F080501090FFF768
:1018A00077F9042000900020079003966846FFF720
:1018B00041FB1C4806600AA8FFF7DAF92846FFF743
:1018C000D9FC1648001D016841F010010160134A5F
:1018D00046F2E85118321160121D46F641111160AE
:1018E000016821F01001016001688906FCD53A46C3
:1018F00001210B48FFF7B6FC2868016841F001019F
:101900000160012211460320FFF710F90320FFF7C1
:1019100000F911B0F0BD00000010024000280040A6
:10192000340700203C044242F0B51D4885B081696F
:1019300041F0040181618069022600F004000490F6
:101940002020CDE90006174F0024032569463846BC
:10195000CDE90245FEF7A2FF4020CDE9000469462B
:101960003846CDE90245FEF799FF8020CDE9000613
:1019700069463846CDE90245FEF790FF0120019007
:101980001020009069463846CDE90245FEF786FFF3
:10199000012210213846FFF77DF805B0F0BD0000A8
:1019A000001002400008014008B5FFF7BDFF0F48D6
:1019B000816941F48051816180690D4900F4805052
:1019C00000900C484FF4007201604FF48271416046
:1019D00000218160C1604161826101611822C0E91A
:1019E00007214162BDE80840FFF7B2BC0010024089
:1019F00000300140DC0600207047000010B5064CA6
:101A0000206800B18047A068E168401C41F10001F6
:101A1000A060E16010BD00002000002030B58FB054
:101A200028216846FEF7D8FB14210AA8FEF7D4FB4C
:101A300001210804CDE9001000240294022504913C
:101A4000CDE907504FF4E01009906846FFF772FAAD
:101A500000B1FEE70F20CDE90A054FF48060CDE923
:101A60000C4002210AA80E94FFF778F9002800D054
:101A7000FEE70FB030BD00000D48016841F00101E4
:101A8000016041680B4A1140416001680A4A1140F7
:101A90000160016821F480210160416821F4FE01A8
:101AA00041604FF41F0181600449C0030860704722
:101AB000001002400000FFF8FFFFF6FE08ED00E016
:101AC00010B50B4C20680069400710D50421204652
:101AD000FFF797FC074980B24880226800215162D5
:101AE0002268491F1161BDE81040FFF7F7BD10BD26
:101AF0007801002004000020074908680269D20725
:101B000008D06FF0010202610968002048620348B2
:101B100000680047704700002C0D0020680000207E
:101B200070B5446A2068406994F83910C0F3C01059
:101B30000025212904D118B1E584204600F046F89B
:101B40002068406994F83A10C0F38010222904D12B
:101B500018B1E585204600F02BF8E06B40F010004E
:101B6000E0632046FFF78EFC70BD10B50146406A69
:101B700009680968890613D40021C1850168CA680B
:101B800022F48072CA6001684A6922F001024A6147
:101B900001684A6922F040024A61202180F83A1027
:101BA000FFF7F0FC10BD10B5406AFFF7ECFC10BD6C
:101BB0000168CA6822F49072CA6001684A6922F01A
:101BC00001024A61202180F83A1070470168CA6812
:101BD00022F0C002CA60202180F83910704700004E
:101BE0002DE9F041044600680169E26821F44051A2
:101BF000114301612169A0680843616908432168B4
:101C0000CA6841F20C639A430243CA602068416982
:101C1000A26921F44071114341611E492068642585
:101C20003226884202D1FFF73FF901E0FFF72CF995
:101C300000EBC00101EB001160686FF01807800035
:101C4000B1FBF0F2B2FBF5F2B1FBF0F37A4303EB38
:101C50008202B1FBF0F306EB0212B2FBF5F2B3FB2A
:101C6000F5F302F0F00202EB0312B1FBF0F3B1FB6B
:101C7000F0F0B0FBF5F0784303EB800006EB0010CA
:101C8000B0FBF5F0216800F00F0010448860BDE85B
:101C9000F0810000003801402DE9F04198461746D8
:101CA0000E460446069D1DE0681C1BD02DB1FEF7B4
:101CB000F7FEA0EB0800A84214D92068C16821F4FF
:101CC000D071C1602068416921F00101416120208B
:101CD00084F8390084F83A00002084F838000320A2
:101CE000BDE8F0812068006836EA000004D00020DA
:101CF000B842D9D00020F3E70120F9E738B50F4CFE
:101D000020680168C90618D501684068009020461F
:101D1000FFF78CFB206C4068D4F89420C0F58060FD
:101D200081B204F19800044690472146BDE838404E
:101D30004FF480620148FFF7D9BB38BDE4010020B1
:101D400010B50D4C206801680C48884306D10C483A
:101D50000068804721686FF04000086020680168D3
:101D600006482038884305D1064800688047216826
:101D70000548086010BD00009408002040000010D5
:101D80006000002064000020DFFFFFEF114810B565
:101D900000680168C9061BD56FF0100101600D488D
:101DA000FFF744FB0B48403000684068094AC0F127
:101DB000C80080B2C0F1C801C83A1044FEF70CFA5E
:101DC0000449C822BDE81040C8390248FFF78EBB5D
:101DD00010BD0000100800200A4601460148FFF728
:101DE000D0BC00007C06002010B5044600F066F868
:101DF00000F042F82046BDE8104000F001B80000B5
:101E000038B51A4C1849C4F8941019498A6942F433
:101E100080428A61896901F4804100911549C4E9D1
:101E200000100020E060A06020610C20606120466E
:101E3000FFF729FB2068C16841F01001C160012251
:101E400011462520FEF772FE2520FEF762FE04F102
:101E5000400064666063BDE8384000F158014FF40B
:101E600080624038FFF742BBD91D0008E401002022
:101E700000100240003801400D4882B0416941F035
:101E80000101416140690B4900F0010000900A48DE
:101E90008022016400214164C0E91212016541659C
:101EA00081654FF44051C165403002B0FEF780BCFF
:101EB0000010024058000240E40100207FB5144C9D
:101EC00012480115C4F88C00A4F8901044F8840F4F
:101ED0004115A180FEF7E2FB02200190A0880325B6
:101EE0000395009069462068FEF7D8FCA068FEF7CD
:101EF000D5FB00200190A08900900120CDE90205CA
:101F00006946A068FEF7CAFC7FBD000000080140DA
:101F1000E4010020FEE7000010B50748FFF75DFA76
:101F20000322141F11462046FEF700FE2046BDE89E
:101F30001040FEF7EEBD0000401901000FB4054B44
:101F400010B503A9044A029800F028F810BC5DF807
:101F500014FB000055230008540100200907090E56
:101F6000002804DB00F1E02080F80014704700F046
:101F70000F0000F1E02080F8141D704702E008C84F
:101F8000121F08C1002AFAD170477047002001E0F3
:101F900001C1121F002AFBD1704700002DE9FF4F3D
:101FA0008DB09B460F460446002606E025280BD040
:101FB0005A460F999047641C761C20780028F5D16A
:101FC00011B03046BDE8F08F0025A846012298499F
:101FD00000E0054314F8013F203B02FA03F00842F9
:101FE000F7D120782E2817D114F8010F45F00405F9
:101FF0002A280ED06FF02F022078A0F13001092995
:102000000AD808EB880102EB410100EB0108641CCF
:10201000F2E757F8048B641C20786C280DD004DCA0
:102020004C2812D06A2811D104E074280DD07A28E7
:102030000CD10AE045F4001507E0617845F48015FD
:10204000814202D1641C05F58015641C2278692A3E
:1020500045D008DC002AB3D0582A69D0632A10D0B2
:10206000642A08D13BE0702A67D0732A13D0752AFE
:102070005CD0782A5CD010465A460F999047761C5F
:10208000D3E017F8040B8DF8000000208DF8010054
:10209000E946012003E057F8049B4FF0FF30690741
:1020A0004FF0000501D40AE06D1C45450DDA85426C
:1020B000FADB19F805100029F6D106E06D1C8542FF
:1020C000FCDB19F805100029F8D12E4404E019F8BA
:1020D000010B5A460F9990476D1EF8D2A5E00A20D1
:1020E0000021CDE90801C5F3025002280DD001CF2F
:1020F000C117031E71F100030DDA4FF0000CD0EB95
:102100000C006CEB01012D2308E0FF1D27F00707F1
:10211000F7E80201EDE72B0504D52B238DF82830D5
:1021200001233BE0EB0739D02023F7E70A2000E04A
:1021300010200021CDE9080107E01020002145F022
:102140000405CDE908014FF00808C5F30250022844
:102150000FD001CF00214FF0000A2B071FD5702AA6
:102160000DD0DDE908C38CF0100C5CEA030C0CD038
:1021700015E0FF1D27F00707F7E80201EBE7402213
:102180008DF828204FF0010A0BE050EA010306D039
:1021900030238DF828308DF8292002239A46582ABA
:1021A00004D024A20DF120090B9209E026A2F9E740
:1021B000DDE90823FDF7D8FF0B9B9B5C09F8013D87
:1021C00050EA0102F4D1ADEB090020300890680715
:1021D00001D44FF001080899884502DDA8EB010001
:1021E00000E000208046002506E00AA85A46405D2F
:1021F0000F9990476D1C761C5545F6DB04E03020A6
:102200005A460F999047761CB8F10001A8F10108D1
:10221000F5DC05E019F8010B5A460F999047761C3A
:102220000899481E08900029F4DC641CC5E60000EB
:10223000092801003031323334353637383961629C
:102240006364656600000000303132333435363760
:1022500038394142434445460000000070B50C4601
:1022600009880026052926D1417805790A02817856
:102270001143C27845EA02256A1E7C2A1BD8002237
:102280002280032200F8012B22880023521C228086
:102290006A0000F8012B2288521C22802A4600F096
:1022A00049F818B100F08CF8064605E0208800EBEC
:1022B0004500208000E00326304670BD10B5098837
:1022C0000024052902D00324204610BD41780123B3
:1022D0000A028178C01C11431A4600F02BF800282E
:1022E000F2D000F06DF80446EEE770B50D460988AF
:1022F000002406291BD341780A0281781143C27851
:10230000130202791A434379561E772E0FD85606C8
:10231000360E9E420BD10123801D00F00BF818B140
:1023200000F04EF8044603E00520288000E0032476
:10233000204670BD10B51146012B00D013B902A084
:10234000FFF7FCFD002010BD7468652025640D0AB0
:102350000000000038B504468DF800000223012279
:1023600069460248FFF710F9204638BDE401002015
:10237000FEF79CFBFFF752FBFEF7BCF8FFF7CCFD26
:102380004FF4E130FFF730FDFFF780F9FFF75AF91E
:10239000FFF70AFBFDF7F3FFFEF710F94FF4FA60C1
:1023A000FEF78EF804A0FFF7C9FD00BFFDF7EAFFB6
:1023B0006420FEF785F8F9E76F6B0D0A0000000056
:1023C000002804D0012803D0072803D00420704738
:1023D0000220704706207047000000000000000047
:1023E00001020304060708090000000001020304BB
:1023F00041542B43574A41503D22594538363831D4
:10240000323533222C22594A5A3236333333220D95
:102410000A000000415445300D0A000041542B438E
:1024200049504D4F44453D310D0A000041542B4366
:10243000495053544152543D22544350222C22318E
:1024400038332E33312E32372E313534222C313879
:1024500038330D0A0000000041542B43574D4F44C0
:10246000453D330D0A00000041542B43495053456C
:102470004E440D0A0000000041540D0A0000000007
:102480003E0000004F4B0000A82400080000002080
:102490005801000084020008FC24000858010020B4
:1024A000181C00008C1F0008115324F442015D0C1D
:1024B000014002085A20080114292C7210393001F9
:1024C000273203135D222A083C1AEB0832061ABD94
:1024D00008016C39E8B11314241B0884041AE89D20
:1024E0009A780C9A580C4BF0230C23983A5A2C18D3
:0C24F000290C9A1C241A68085A800C4120
:0400000508000131BD
:00000001FF
