:020000040800F2
:10000000F8150020450100086D210008BB1B000801
:10001000311F0008530A00087D2600080000000078
:100020000000000000000000000000005B2200084B
:10003000970A0008000000006F2100085D220008F8
:100040005F0100085F0100085F0100085F01000810
:100050005F0100085F0100085F0100085F01000800
:100060005F0100085F0100085F0100085F010008F0
:100070005F0100085F0100085F0100085F010008E0
:100080005F0100085F0100085F0100085F010008D0
:100090005F0100085F0100085F0100085F010008C0
:1000A0005F0100085F0100085F0100085F010008B0
:1000B0005F0100085F0100085F0100085F010008A0
:1000C0005F0100085F0100085F0100085F01000890
:1000D0005F010008FD2400085F0100085F010008BF
:1000E0005F0100085F0100085F0100085F01000870
:1000F0005F0100085F0100085F0100085F01000860
:100100005F0100085F0100085F0100085F0100084F
:100110005F0100085F0100085F0100085F0100083F
:100120005F0100085F0100085F0100085F0100082F
:10013000DFF80CD000F01AFC004800470936000830
:10014000F81500200648804706480047FEE7FEE70E
:10015000FEE7FEE7FEE7FEE7FEE7FEE7FEE7FEE777
:10016000D922000831010008D2B201E000F8012BC9
:10017000491EFBD270470022F6E710B513460A4627
:1001800004461946FFF7F0FF204610BDF0B480EAA0
:100190000102D40F4200B2EB410F02D202460846E0
:1001A00011464A0042D0C30DDDB2C1F3C752AD1AA9
:1001B000202D35DAC1F3160141F4000204B1524298
:1001C000C5F1200602FA06F12A411044B3EBD05FD4
:1001D00023D0C4B1012DA0EBC35009DCF0BC4FF01B
:1001E000004202EAC352DBB200F5000000F07DBA23
:1001F000400000F1807000EBC350A0F1807040EA35
:10020000D170490009E0490841EAC071A0EBC35030
:1002100000F50000400800EBC350F0BC00F05CBAF1
:100220006142012202EB4101001BF6E7F0BC70477E
:1002300081F00041AAE780F00040A7E780EA0102D0
:1002400010B502F00043400022D04A001FD0010E3A
:1002500001EB1261C0F35600C2F3560240F40000F5
:1002600042F40002A0FB022000047F39140400D0F5
:10027000401C50EA124001D44000491EC2B20C0694
:1002800004EBD010401C4008802A02D003E000207C
:1002900010BD20F00100002900DA0020184310BD35
:1002A00030B480EA010202F0004530F0004221F053
:1002B000004013D090B1C30DD40DC2F31601C0F3AA
:1002C0001600E41A41F4000140F400027D3491422A
:1002D00001D3641C00E04900002C02DA30BC00208D
:1002E00070474FF400000023914201D3891A034361
:1002F00040084FEA4101F7D151B1914202D14FF08C
:10030000004105E002D24FF0010101E06FF0010170
:1003100003EBC450284430BC00F0DEB9420005D0E5
:10032000C0F3C7525242914201DC0020704700EBFB
:10033000C15070472DE9FE4F804681EA0300C00F8F
:100340000C46009021F0004123F00045B8EB02007C
:10035000A94105D24046214690461C460B4602461E
:1003600023F00040104347D0270DC7F30A00C3F322
:100370000A510290401A019040286BDAC3F313002F
:1003800040F4801B0098924620B10023D2EB030A70
:1003900063EB0B0B01985946C0F14002504600F048
:1003A0007AF906460D4650465946019A00F082F900
:1003B00010EB08006141002487EA115284EAE773D8
:1003C0001A4340D0009A62B3019A012A4FEA0752B9
:1003D00015DC001B61EB02014FF0004202EA0752FC
:1003E000CDE90042001C41F5801132462B4600F059
:1003F000B9F903B0BDE8F08F40462146F9E7001B8C
:1004000061EB0201001C41F5801300185B412018CC
:10041000A2F5001747EB030140EAD570B6196D410C
:1004200011E06D084FEA360645EAC0754FEA0752FB
:10043000001B61EB0201001C41F5801149084FEAE5
:1004400030000019514132462B4603B0BDE8F04F51
:1004500000F079B90098012240000023D0EB02029D
:1004600063EBE073009821464FEAE074B8EB0000BC
:1004700061EB0401E9E783F000435BE781F00041B1
:1004800058E72DE9FE4F81EA030404F0004421F00F
:10049000004100944FF0000B23F0004350EA0104A8
:1004A0005ED052EA03045BD0C3F30A54C1F30A5589
:1004B0002C44A4F2F3340194A0FB0254C1F31301C1
:1004C00041F48011C3F3130343F4801301FB02448E
:1004D00000FB034E840A970A44EA815447EA835793
:1004E000A4FB076802958D0A05FB07854FEA932C4C
:1004F00004FB0C542705029D4FEA065847EA1637BD
:10050000B5EB08056EEB070C870E920E47EA8117D4
:1005100042EA8312A7FB0201B6EB0B0164EB000475
:100520002B0D43EA0C335E1844EB1C50DA4651465F
:10053000E7FB0201C5F313044FEA0B3343EA1453FC
:100540004FEA0432019C43EA0603A4F10C0402942E
:10055000009CCDE900B400F005F903B0BDE8F08FD0
:1005600000200146F9E7C10F80EAE0700844CA079D
:100570009623002100F0B9B800F0004220F00040BE
:10058000C10DC0F3160040F400007F2901DA0020FD
:100590007047962903DCC1F19601C84001E0963905
:1005A0008840002AF4D04042704700F0004230F00A
:1005B00000400AD0C10D01F56071C0F3160042EA97
:1005C0000151C2084007114370470020014670479F
:1005D00001F0004330B421F0004150EA010206D09E
:1005E0000A0DA2F56072C1F31301002A02DC30BCCF
:1005F00000207047440F44EAC104C100E01830BC39
:1006000000EBC25000F068B830B50B460146002040
:100610002022012409E021FA02F59D4205D303FAC4
:1006200002F5491B04FA02F52844151EA2F1010245
:10063000F1DC30BD2DE9F05F0546002092469B4677
:1006400088460646814640241BE0284641464746E8
:10065000224600F09DF953465A46C01A914110D3E4
:1006600011461846224600F016F82D1A67EB0108CD
:100670004F4622460120002100F00DF817EB00093B
:100680004E41201EA4F10104DFDC484631462A46D3
:100690004346BDE8F09F202A04DB203A00FA02F12D
:1006A000002070479140C2F1200320FA03F3194360
:1006B00090407047202A06DBCB17203A41FA02F01F
:1006C00043EAE07306E041FA02F3D040C2F12002AF
:1006D00091400843194670470029A8BF7047401C45
:1006E000490008BF20F00100704710B4B0FA80FC48
:1006F00000FA0CF050EA010404BF10BC704749B185
:10070000CCF1200421FA04F411FA0CF118BF0121F4
:1007100021430843A3EB0C01CB1D4FEA00614FEAD4
:10072000102042BF002010BC704700EBC3501044A3
:100730000029A4BF10BC7047401C490008BF20F02E
:10074000010010BC704710B5141E73F1000408DAE4
:10075000401C41F1000192185B411A4301D120F085
:10076000010010BD2DE9F04D92469B4611B1B1FA42
:1007700081F202E0B0FA80F220329046FFF78BFF60
:1007800004460F4640EA0A0041EA0B0153465A4626
:10079000084313D0114653EA010019D0C8F14002B2
:1007A000504600F0F5F805460E465046594642467A
:1007B000FFF771FF084305D0012004E020463946C9
:1007C000BDE8F08D0020054346EAE0762C43374330
:1007D0000A986305E40AA0EB08000022FD0A44EA37
:1007E00047540A3002D500200146E9E701051019F7
:1007F0006941DDE9084500196941BDE8F04DA2E70E
:100800002DE9F04D81EA030404F0004B21F000458E
:1008100014464FF0000A23F0004150EA050220D0B0
:1008200054EA01021DD0C5F30A570246C5F313036B
:10083000C1F31300C1F30A5640F4801543F480134A
:10084000A7EB0608101BD64608F2FD3873EB05002F
:1008500002D308F1010801E092185B41B8F1000FE2
:1008600003DA00200146BDE8F08D00204FF480112E
:10087000064684460EE0171B73EB050705D3121BD3
:1008800063EB050306434CEA010C49084FEA3000CC
:1008900092185B4150EA0107EDD152EA030012D0F1
:1008A00082EA040083EA0501084305D0101BAB412E
:1008B00006D20122002306E000224FF0004302E0AE
:1008C0006FF0010253101AEB06004CEB085110EBCD
:1008D0000A0041EB0B01BDE8F04DFFF734BF70B5E6
:1008E00021F0004303430CD0C1F30A550024D5EB9B
:1008F000040564EB0403D617AD1AB34102DB0020F4
:10090000014670BD201841EB025170BDC1F30A527F
:10091000C1F3130140F2FF3341F480119A4202DA2D
:1009200000200146704740F233439A42A2F233421C
:1009300002DC524200F02CB8FFF7ADBE30B5041E09
:1009400071F1000404DB4FF00044404264EB01010C
:10095000141E73F1000405DB1C464FF000435242A5
:1009600063EB0403994208BF904230BD064C074D2B
:1009700006E0E06840F0010394E80700984710346F
:10098000AC42F6D3FFF7D8FB683700088837000879
:10099000202A04DB203A21FA02F00021704721FAD4
:1009A00002F3D040C2F1200291400843194670473B
:1009B0002DE9F04D00231A461B1A8A4103DB002063
:1009C0000146BDE8F08DC1F30A52C1F3130141F4B1
:1009D00080154FF0000BD10702D100186D41521E57
:1009E0000027044640F2FF11384601EB620A3E46FA
:1009F0008046024600204FF48011FFF7C9FFC2195C
:100A00007141BB1846EB0100B4EB030C75EB000C15
:100A100004D3E41A65EB000517460E46241908F1C5
:100A200001006D4180463428E3DDF91946EB0600EC
:100A3000091BA84103D24FF0FF32134601E0002208
:100A400013461BEB070046EB0A51BDE8F04DFFF7DC
:100A50007ABEFEE7024A0349034800F0B1B800003D
:100A60006F12833BE0050020D405002030B590F8DC
:100A700040500124AC40C56B6C60046863604368FF
:100A8000102B036803D099600068C26030BD9A6083
:100A90000068C16030BD704770B5054600244FF452
:100AA0007A7603E0304600F005F8641CAC42F9D3D6
:100AB00070BD0000044A516800EBC000C0005368DC
:100AC0005B1A8342FBD37047001000E00A480168BC
:100AD00021F080710160016841F080710160074878
:100AE000016821F001010160016841F0010101602C
:100AF0000021416070470000FCED00E0001000E0C4
:100B0000274A08B52749904207D1886940F0040078
:100B10008861886900F0040009E0234A904208D106
:100B2000886940F008008861886900F0080000903A
:100B300008BD1E4A904207D1886940F010008861C4
:100B4000886900F01000F2E7194A904207D18869DD
:100B500040F020008861886900F02000E7E7154A2E
:100B6000904207D1886940F040008861886900F0B0
:100B70004000DCE7104A904207D1886940F08000CD
:100B80008861886900F08000D1E70C4A9042CFD19B
:100B9000886940F480708861886900F48070C6E7D5
:100BA0000008014000100240000C0140001001400C
:100BB0000014014000180140001C014000200140C9
:100BC0002DE9F74F8CB00E4605464FF0FF310E98D9
:100BD000FFF7A4FBDFF8609401904C46D9F80810A9
:100BE000D9F80000FFF72AFBE16807466068FFF7C5
:100BF00025FB3946FFF71CFB0121FFF78FFB029015
:100C0000E168A068FFF71AFB616807462068FFF7F4
:100C100015FB3946FFF7BAFA0121FFF77FFB039076
:100C2000A168A068FFF70AFB616807466068FFF7E4
:100C300005FB3946FFF7AAFA0121FFF76FFB4FF0DA
:100C40007E51FFF7F8FA0490FC4FB7F90400FFF764
:100C50008AFC0146FFF7F2FA8046B7F90200FFF777
:100C600082FC0146FFF7EAFA0446B7F90000FFF7F5
:100C70007AFC0146FFF7E2FA2146FFF787FA414680
:100C8000FFF784FA01F0AAFA0446B5F90000FFF76D
:100C90006AFC2146FFF7D2FA0890B5F90200FFF787
:100CA00062FC2146FFF7CAFA0990B5F90400FFF784
:100CB0005AFC2146FFF7C2FA0A9003990A98FFF7F7
:100CC000BDFA049904460998FFF7B8FA2146FFF7E0
:100CD000AFFA069004990898FFF7B0FA0299044613
:100CE0000A98FFF7ABFA2146FFF7A2FA079002999C
:100CF0000998FFF7A3FA039904460898FFF79EFAAC
:100D00002146FFF795FA08900698A9F10C0BDBF83D
:100D100004100F46FFF792FAC94C2168FFF736FA24
:100D20008246206007983946FFF788FA6168FFF726
:100D30002DFA6060039008983946FFF77FFAA168A2
:100D4000FFF724FAA06006990746DBF80000009040
:100D5000FFF774FA8046B5F90600FFF704FCB94CBA
:100D60002168FFF76BFA4146FFF710FA5146FFF78B
:100D70000DFA029007990098FFF760FA8046B5F9DE
:100D80000800FFF7F0FB2168FFF758FA4146FFF72C
:100D9000FDF90399FFF7FAF9039008990098FFF716
:100DA0004DFA8046B5F90A00FFF7DDFB2168FFF731
:100DB00045FA4146FFF7EAF93946FFF7E7F90490AB
:100DC00004994C46D9F80C00FFF738FA039980468D
:100DD000A068FFF733FA07466068029980F0004088
:100DE000FFF72CFA3946FFF723FA4146FFF720FABE
:100DF0000199FFF723FA04998246A068FFF71EFACB
:100E000003990746E068FFF719FA029980462068BF
:100E1000FFF714FA4146FFF70BFA3946FFF7B6F928
:100E20000199FFF70BFA049981466068FFF706FA0B
:100E3000039980462068FFF701FA02990746E068A7
:100E4000FFF7FCF93946FFF7A1F94146FFF7F0F942
:100E50000199FFF7F3F9049980462068FFF7EEF94E
:100E600002990090A068FFF7E9F9039907466068C6
:100E7000FFF7E4F93946FFF7DBF90099FFF786F948
:100E80000199FFF7DBF9074620685146FFF77EF925
:100E9000206060684946FFF779F96060A0684146C4
:100EA000FFF774F9A060E0683946FFF76FF9E0607A
:100EB000E168E068FFF7C2F9A1688146A068FFF722
:100EC000BDF9616880466068FFF7B8F92168074698
:100ED0002068FFF7B3F93946FFF758F94146FFF7A5
:100EE00055F94946FFF752F901F078F907462068AD
:100EF0003946FFF7A3F9206060683946FFF79EF98D
:100F00006060A0683946FFF799F9A060E06839464B
:100F1000FFF794F9E06060680121FFF7FFF9E168ED
:100F2000FFF78CF9074620680121FFF7F7F9A16860
:100F3000FFF784F93946FFF77BF9814620680121E4
:100F4000FFF7ECF96168FFF779F90746A06801211E
:100F5000FFF7E4F9E168FFF771F93946FFF716F991
:100F60008246A0680121FFF7D9F9A168FFF766F969
:100F7000074660680121FFF7D1F96168FFF75EF964
:100F80004FF07E542146FFF756F93946FFF750F9E6
:100F90000090B5F90A00FFF7E6FA2B490968FFF758
:100FA0004DF9A04202DC10F1814F06D90E99FFF7EE
:100FB00045F9B168FFF7EAF8B060DFF89080D8F83B
:100FC0000000FFF7F2FA07460C464846FFF7EDFA35
:100FD00002F07CF83A462346FFF753FAFFF7F8FA97
:100FE00070605046009902F0A9F9D8F80010FFF798
:100FF00025F93060B5F90400FFF7B5FA0099FFF75D
:101000001DF90446B5F90200FFF7ADFA5146FFF7A6
:1010100015F90646B5F90000FFF7A5FA4946FFF7AE
:101020000DF93146FFF7B2F82146FFF7AFF8CBF8DC
:1010300008000FB0BDE8F08FAC000020D405002000
:10104000EC050020103700080C37000808370008AE
:1010500000F070BF10B590F821100022022905D0D1
:101060000421816380F82020012010BD01680B68F5
:1010700023F00E030B6001680B6823F001030B6083
:1010800090F84030C46B012101FA03F3636080F8EB
:10109000211080F82020104610BD000030B560B14E
:1010A0001A4B026814219A4209D2194B1344B3FB1C
:1010B000F1F18900016417490AE0012030BD134BAA
:1010C0005B421344B3FBF1F1890001640F49083915
:1010D000C163022180F82110136843F6F0718B433D
:1010E000F0E901142143D0E902452C43214304696E
:1010F000214344692143846921431943116000213C
:101100004163012242770177084630BD080402405E
:10111000F8FFFDBF0000024070B5044690F82000C3
:10112000002501280CD0012084F8200094F82160CB
:101130000020012E06D084F820000225284670BD2C
:10114000022070BD022684F82160A0632068066832
:1011500026F0010606602046FFF788FCE06A0028BA
:101160002068016802D041F00E0106E021F0040180
:1011700001602068016841F00A010160206801688F
:1011800041F001010160D9E72DE9F84FDFF8C8917E
:10119000002409F1040A0AF1040B23460F270BF17E
:1011A000040ED1E00125A54006EA0502AA4276D147
:1011B000DFF8A8C14E68A6EB0C0866452BD00DDC05
:1011C000032E34D005DC36B3012E19D0022E2FD1D8
:1011D0001BE0112E16D0122E2AD119E0B8F5881F67
:1011E00019D006DCB8F5803F15D0B8F5801F1FD1A7
:1011F00011E0B8F5001F0ED0B8F5041F18D10AE0B1
:10120000CB6815E0CB681B1D12E0CB6808330FE0FC
:10121000CB680C330CE08B682BB1012B4FF008032B
:1012200003D0456104E0042302E0056100E00023EF
:10123000FF2A01D8064601E000F104064FEA8405C2
:1012400001D9A5F12005D6F8008007FA05FC28EAA7
:101250000C0803FA05F548EA0508C6F800804D6851
:10126000ED0070D53E4DAE6946F00106AE61AD6948
:1012700024F0030605F0010500953A4D06EB050C38
:10128000DCF80850A607360F07FA06F825EA080525
:10129000DFF8D480404503D14FF0000825E052E04C
:1012A000DFF8C880404502D14FF001081DE0DFF8AB
:1012B000C080404502D14FF0020816E0DFF8B4804C
:1012C000404502D14FF003080FE0DFF8AC80404505
:1012D00002D14FF0040808E0DFF8A080404502D1B9
:1012E0004FF0050801E04FF0060808FA06F848EA52
:1012F0000508CCF808804D68D9F80060ED034D462C
:1013000001D5164300E096432E604D68DAF8006080
:10131000AD03554601D5164300E096432E604D6857
:10132000DBF80060ED025D4601D5164300E0964310
:101330002E604D68DEF80060AD02754601D516439B
:1013400000E096432E60641C0A681646E2407FF473
:1013500029AFBDE8F88F0000000401400000111023
:10136000001002400000014000080140000C014054
:10137000001001400014014000180140001C014011
:101380008068084000D0012070470AB101617047B1
:101390000904FBE70148806870470000180000203E
:1013A000074810B5016841F010010160032000F00A
:1013B00057F80F2000F006F800F024F8002010BDC8
:1013C0000020024070B50D4D04464FF47A71287824
:1013D000B1FBF0F00A490968B1FBF0F000F0CEFA79
:1013E00048B9102C07D200222146501E00F018F8F0
:1013F00000206C6070BD012070BD0000180000204E
:10140000000000207047002809DB00F01F020121C6
:1014100091404009800000F1E020C0F800117047C1
:10142000F0B40E4B1B680C46C3F30223C3F107054F
:10143000042D00D90425191D072901D2002300E03D
:10144000DB1E012606FA05F1491E214099409E4007
:10145000761E16403143F0BC01F05BB90CED00E0A4
:10146000064900F0070208684FF6FF03184040EAFB
:101470000220034A10430860704700000CED00E0B2
:101480000000FA052DE9F0470F46050061D0434EF4
:10149000306800F00700B84209D2306820F0070039
:1014A00038433060306800F00700B84251D12868F6
:1014B0003B4C810712D5400703D5606840F4E060DB
:1014C00060602878000703D5606840F46050606071
:1014D0006068A96820F0F000084360602878C007C1
:1014E00028D06868012810D02168022810D0890708
:1014F00000292EDA616821F0030101436160FFF7E2
:1015000049FF804641F288390DE021688903EFE701
:101510008901EDE7FFF73EFFA0EB0801494502D93D
:101520000320BDE8F0876068696800F00C00B0EB4C
:10153000810FEFD1306800F00700B8420BD9306856
:1015400020F0070038433060306800F00700B842F0
:1015500001D00120E5E72878400705D56068E968F3
:1015600020F4E060084360602878000706D56068D2
:10157000296920F4605040EAC100606000F038F84A
:101580006168084AC1F30311515CC840064908600C
:1015900006480068FFF716FF0020C2E7002002405F
:1015A00000100240F0360008000000201C0000205F
:1015B0000448054900684968044AC1F30221515CA6
:1015C000C8407047000000200010024000370008AB
:1015D0000448054900684968044AC1F3C221515CC6
:1015E000C84070470000002000100240003700088B
:1015F00012A185B00FC98DE80F0014A0144A00682D
:1016000004905168134801F00C03042B10D0082BF0
:101610000ED1C1F38343C9031DF803000AD55168F5
:1016200004AAC1F34041515C0A4A5043B0FBF1F0B7
:1016300005B0704708494843FAE700000203040573
:10164000060708090A0B0C0D0E0F1010010200000E
:101650000010024000127A0000093D002DE9F84F09
:10166000040070D02078C04DC00749D06868C0F32E
:101670008100012807D06868C0F38100022809D1E1
:101680006868C00306D52868800339D560680028DB
:10169000E7D035E06068B0F5803F0BD010B1B0F511
:1016A000A02F11D0286820F480302860286820F40A
:1016B000802002E0286840F480302860606890B1A3
:1016C000FFF768FE06460AE0286840F4802028609C
:1016D000F0E700BFFFF75EFE801B642873D8286820
:1016E0008003F7D50CE0FFF755FE064605E000BF86
:1016F000FFF750FE801B6428F0D828688003F7D4D9
:1017000020789A4E80074FF001094FF0000839D534
:10171000686810F00C0F07D06868C0F381000228D9
:1017200009D16868C00306D42868800714D52069E9
:10173000012808D110E02069B0B1C6F80090FFF789
:1017400029FE074605E00AE1FFF724FEC01B022838
:10175000C4D828688007F7D52868616920F0F800A8
:1017600040EAC10028600DE0C6F80080FFF712FED5
:10177000074604E0FFF70EFEC01B022823D82868A6
:101780008007F7D4207800072CD57948A169D9B112
:10179000C0F80090FFF7FEFD074604E0FFF7FAFDF2
:1017A000C01B02280FD8686A8007F7D571484FF42C
:1017B000FA510068B0FBF1F0009000BF0098411EA4
:1017C0000091FAD20EE080E0C0F80080FFF7E2FD61
:1017D000074604E0FFF7DEFDC01B022875D8686AE3
:1017E0008007F7D42078400760D5E8690027C0005B
:1017F00008D4E86940F08050E861E869012700F00A
:10180000805000905C480168C90513D40168834684
:1018100041F480710160FFF7BDFD824606E000BF24
:10182000FFF7B8FDA0EB0A0064284ED8DBF80000F3
:10183000C005F5D5E06801280AD008B1052813D005
:10184000286A20F001002862286A20F0040002E0E3
:10185000286A40F001002862E06841F2883B98B1B4
:10186000FFF798FD82460BE0286A40F004002862EA
:10187000EEE700BFFFF78EFDA0EB0A0159455AD8ED
:10188000286A8007F6D50CE0FFF784FD824605E064
:10189000FFF780FDA0EB0A0159454CD8286A800764
:1018A000F6D41FB1E86920F08050E861E06988B3A0
:1018B0006968C1F38101022944D00228C6F860801A
:1018C00004D0FFF767FD044638E034E0FFF762FD1F
:1018D000074604E0FFF75EFDC01B02282BD82868EE
:1018E0008001F7D4206AB0F5803F05D16868A1680F
:1018F00020F4003008436860D4E9080108436968AF
:1019000021F4741108436860C6F86090FFF742FD47
:10191000044606E025E000BFFFF73CFD001B02285F
:1019200009D828688001F7D51BE000BFFFF732FD1A
:10193000001B022802D90320BDE8F88F2868800127
:10194000F4D40EE00128F7D06868226A00F48031F0
:10195000914204D1616A00F47010884201D00120E4
:10196000EAE70020E8E700000010024000004242E1
:1019700080044242000000200070004010B5401E6C
:10198000B0F1807F01D3012010BD4FF0E0246061F1
:101990000F21601700F0BDFE0020A061072020612C
:1019A000002010BD10B504460068416994F8392044
:1019B000C1F3C011212A0BD151B1416921F080013D
:1019C0004161206B08B1FFF745FB204600F0FEFCAB
:1019D0002068416994F83A20C1F38011222A0BD182
:1019E00051B1416921F040014161606B08B1FFF7DD
:1019F00031FB204600F0DCFC002010BD704770B5C4
:101A0000040004D094F83900002510B106E001204C
:101A100070BD84F83850204600F022F8242084F865
:101A200039002068C16821F40051C160204600F0EF
:101A3000D7FC2068016921F4904101612068416967
:101A400021F02A0141612068C16841F40051C16060
:101A5000E563202084F8390084F83A00002070BD46
:101A600070470000F8B5044690F83A0020283CD1B1
:101A7000C1B3BAB394F83800012836D0012084F8F5
:101A80003800A162A2850025E563222084F83A008F
:101A9000636B17489862636B1648D862636B16488D
:101AA0001863606B134645630846666B21680246FF
:101AB0003046091DFFF730FB20680168416800913E
:101AC00084F83850C16841F48071C1602068416970
:101AD00041F0010141612068416941F040014161EB
:101AE0000020F8BDFFE70120FBE70220F9E7000036
:101AF0006B230008A72300082123000870477047C4
:101B00002DE9F843044690F839001F4616460D4665
:101B1000202850D1A5B19EB194F8380001284AD0B0
:101B2000012084F838004FF00008C4F83C802120E0
:101B300084F83900FFF72EFCA6848146E68426E06F
:101B40000120BDE8F883E08C401EE084A0684B468D
:101B5000B0F5805F4FF000024FF080012046009703
:101B600003D000F099FCE8B90DE000F095FCC8B98D
:101B700028882168C0F308004860206908B16D1CFE
:101B800005E0AD1C03E0216815F8010B4860E08C0E
:101B90000028D8D14B46002240212046009700F073
:101BA0007BFC08B10320CCE7202084F8390084F8BE
:101BB00038800020C5E70220C3E7FEE770B5154D69
:101BC0000024012280212846FFF7DFFB0420FEF7D6
:101BD00071FF012240212846FFF7D7FB0420FEF7C2
:101BE00069FF07E0641CE4B2C82C03D900F0BCF81C
:101BF000002070BD80212846FFF7C2FB0028F1D1EC
:101C0000002240212846FFF7C0FB0420FEF752FFC8
:101C1000012070BD000C0140F0B50F4885B081690E
:101C200041F0080181618069112400F008000490EE
:101C30004020002503268DE87100084F694638468C
:101C4000FFF7A2FA80208DE8710069463846FFF759
:101C50009BFA05B0F0BD000000100240000C0140EE
:101C600070B5134E0024012280213046FFF78DFB12
:101C70000025012240213046FFF787FB0420FEF7B4
:101C800019FF6006040E80213046FFF779FB08B18A
:101C9000641CE4B2002240213046FFF776FB0420AA
:101CA000FEF708FF6D1CEDB2082DE2D3204670BD93
:101CB000000C014070B50D46044600F0B7F8204610
:101CC00000F02CF8FFF77AFF10B911A000F0EAFC41
:101CD000284600F023F8FFF771FF10B90CA000F0C0
:101CE000E1FC00F041F800F0A1F8641CE0B200F063
:101CF00015F8FFF763FF10B905A000F0D3FCFFF75C
:101D0000AFFF044600F074F800F02EF860B270BD2A
:101D1000696963206572726F720A000070B5114EB6
:101D200005460024280601D5012200E0002280217A
:101D30003046FFF72AFB6806050E01224021304697
:101D4000FFF723FB0420FEF7B5FE002240213046BA
:101D5000FFF71BFB0420FEF7ADFE641CE4B2082C69
:101D6000E0D370BD000C014010B50D4C0022802165
:101D70002046FFF70AFB0420FEF79CFE01224021CB
:101D80002046FFF702FB0420FEF794FE012280218B
:101D90002046FFF7FAFABDE810400420FEF78ABE9D
:101DA000000C014010B5114C002280212046FFF7A5
:101DB000ECFA0420FEF77EFE012240212046FFF7C8
:101DC000E4FA0420FEF776FE002240212046FFF7C9
:101DD000DCFA0420FEF76EFE012280212046FFF788
:101DE000D4FABDE810400420FEF764BE000C0140A8
:101DF00010B50D4C012280212046FFF7C6FA0420C1
:101E0000FEF758FE012240212046FFF7BEFA0420CB
:101E1000FEF750FE002240212046FFF7B6FABDE84B
:101E200010400420FEF746BE000C014010B5104CD7
:101E3000012240212046FFF7A8FA012280212046F6
:101E4000FFF7A3FA0420FEF735FE0022802120468A
:101E5000FFF79BFA0420FEF72DFE002240212046CA
:101E6000FFF793FABDE810400420FEF723BE000000
:101E7000000C014070B515460E460446FFF7D6FF2C
:101E80002046FFF74BFFFFF799FE3046FFF746FF6E
:101E9000FFF794FE2846FFF741FFFFF78FFEFFF79D
:101EA00063FF002070BD00002DE9F0411C4615467F
:101EB0000F460646FFF7BAFF3046FFF72FFFFFF742
:101EC0007DFE10B917A000F0EDFB3846FFF726FFA6
:101ED000FFF774FE10B913A000F0E4FBFFF744FF16
:101EE000FFF7A4FF761CF0B2FFF718FFFFF766FEBE
:101EF00070B90CA000F0D6FB0AE000BFFFF7B0FEFF
:101F00002870012C0BD0FFF74DFF641EE4B26D1C4E
:101F1000002CF3D1FFF728FF0020BDE8F081FFF788
:101F200067FFF2E7696963206572726F720A0000E9
:101F3000FEE700002DE9FE4F06236A463B21D02034
:101F4000FFF7B2FF6D4606234321D020AA1DFFF7FD
:101F5000ABFFDFF890900024A84600BF38F81400CB
:101F60004D4641BAD9F8000020F81410032C13D2C2
:101F700030F91400FEF7F7FA01461A4804EB440260
:101F8000001D00EBC200064601F014FBB068FEF72E
:101F9000F3FA296821F81400022C1CD92F68E01EDE
:101FA000C6B2DFF844A037F91400FEF7DCFA514658
:101FB000FEF744F9DFF834A005460D495AF826002B
:101FC000FEF73CF92946FEF7E1F84AF82600FEF74D
:101FD000D3FA27F81400641CE4B2062CBED3BDE883
:101FE000FE8F0000540000209A99193EC805002079
:101FF0009A99593F2DE9F0438BB0182104A8FEF7B8
:10200000BAF81E240021DFF8D49002910391C9F898
:102010000010C9F80410C9F808104FF400516FF00F
:102020000408A9F804102E4D29E002AE6F460A20DC
:10203000FEF732FDFFF77EFF2A68002002EB400129
:10204000CB8836F810C0A3EB0C0327F81030C988F2
:1020500026F81010401C00B20328EFDBBDF9000089
:10206000401D0B28E3D2BDF902000528DFDC404506
:10207000DDDBBDF904000528D9DC4045D7DB641E53
:10208000E4B2D2D20024FFF755FF4FF4B27704AE8A
:1020900011E000BFFFF74EFF642C0CDB2968002025
:1020A00056F8202031F910301A4446F82020401C00
:1020B000C0B20628F4D3641C24B2BC42EADB002080
:1020C0004FEA090156F82020121221F81020401C76
:1020D00000B20628F6DB0BB0BDE8F083BC0500209B
:1020E0005400002010B580226B21D020FFF7C2FEE3
:1020F00004461E20FEF7D0FC02221921D020FFF753
:10210000B9FE044403226B21D020FFF7B3FE044440
:1021100003221A21D020FFF7ADFE044418221B2110
:10212000D020FFF7A7FE044409221C21D020FFF78E
:10213000A1FE204410F0FF0FD5D17521D020FFF76C
:10214000B9FDC4B2682C01D0012010BDFFF752FFC9
:10215000214602A000F0A6FA002010BD7468652098
:1021600069642069732025780D0A00007047704764
:1021700010B50D4C6068FEF718FA02460B460BA02E
:1021800000F090FA2068FEF710FA02460B460BA00A
:1021900000F088FAA068FEF708FA0246BDE8104091
:1021A0000B460AA000F07EBAE005002074686520A6
:1021B000782025322E32660D0A00000074686520F2
:1021C000792025322E32660D0A00000074686520E1
:1021D0007A2025322E32660D0A00000070B50446C2
:1021E0004FF07F554FF0FF31FEF798F80849A1EB0B
:1021F00064042146FEF722F82146FEF71FF829461F
:10220000FEF719F82146BDE87040FEF717B8000048
:10221000DF59375F30B5C36804685A1CB2FBF4F568
:1022200004FB15228468944201D1032030BD446828
:10223000E154C260002030BDF0B515460E46074699
:10224000002406E0315D3846FFF7E4FF032802D0A2
:10225000641CAC42F6D32046F0BD704710B5064C66
:10226000206800B18047A068E168401C41F100018E
:10227000A060E16010BD00000800002030B58FB004
:1022800028216846FDF777FF14210AA8FDF773FFA0
:1022900001210804CDE900100024029402250491D4
:1022A000CDE907504FF4E01009906846FFF7D6F9E2
:1022B00000B1FEE70F20CDE90A054FF48060CDE9BB
:1022C0000C4002210AA80E94FFF7DCF8002800D089
:1022D000FEE70FB030BD00000D48016841F001017C
:1022E000016041680B4A1140416001680A4A11408F
:1022F0000160016821F480210160416821F4FE0140
:1023000041604FF41F0181600449C00308607047B9
:10231000001002400000FFF8FFFFF6FE08ED00E0AD
:1023200070B5446A2068406994F83910C0F3C01051
:102330000025212904D118B1E584204600F046F893
:102340002068406994F83A10C0F38010222904D123
:1023500018B1E585204600F02BF8E06B40F0100046
:10236000E0632046FFF74AFB70BD10B50146406AA6
:1023700009680968890613D40021C1850168CA6803
:1023800022F48072CA6001684A6922F001024A613F
:1023900001684A6922F040024A61202180F83A101F
:1023A000FFF7ACFB10BD10B5406AFFF7A8FB10BDEE
:1023B0000168CA6822F49072CA6001684A6922F012
:1023C00001024A61202180F83A1070470168CA680A
:1023D00022F0C002CA60202180F839107047000046
:1023E0002DE9F041044600680169E26821F440519A
:1023F000114301612169A0680843616908432168AC
:10240000CA6841F20C639A430243CA60206841697A
:10241000A26921F44071114341611E49206864257D
:102420003226884202D1FFF7D3F801E0FFF7C0F867
:1024300000EBC00101EB001160686FF0180780002D
:10244000B1FBF0F2B2FBF5F2B1FBF0F37A4303EB30
:102450008202B1FBF0F306EB0212B2FBF5F2B3FB22
:10246000F5F302F0F00202EB0312B1FBF0F3B1FB63
:10247000F0F0B0FBF5F0784303EB800006EB0010C2
:10248000B0FBF5F0216800F00F0010448860BDE853
:10249000F0810000003801402DE9F04198461746D0
:1024A0000E460446069D1DE0681C1BD02DB1FEF7AC
:1024B00071FFA0EB0800A84214D92068C16821F47C
:1024C000D071C1602068416921F001014161202083
:1024D00084F8390084F83A00002084F8380003209A
:1024E000BDE8F0812068006836EA000004D00020D2
:1024F000B842D9D00020F3E70120F9E738B50F4CF6
:1025000020680168C90618D5016840680090204617
:10251000FFF748FA206C4068D4F89420C0F580603A
:1025200081B204F19800044690472146BDE8384046
:102530004FF480620148FFF795BA38BDC40000200F
:102540000A4601460148FFF777BE00005C050020FF
:1025500010B5044600F066F800F042F82046BDE8E9
:10256000104000F001B8000038B51A4C1849C4F802
:10257000941019498A6942F480428A61896901F498
:10258000804100911549C4E900100020E060A0607E
:1025900020610C2060612046FFF731FA2068C16895
:1025A00041F01001C160012211462520FEF738FFDD
:1025B0002520FEF728FF04F1400064666063BDE853
:1025C000384000F158014FF480624038FFF74ABAB2
:1025D00041250008C40000200010024000380140DE
:1025E0000D4882B0416941F00101416140690B49E8
:1025F00000F0010000900A4880220164002141643B
:10260000C0E912120165416581654FF44051C16511
:10261000403002B0FEF742BD0010024058000240B8
:10262000C40000207FB5144C12480115C4F88C007A
:10263000A4F8901044F8840F4115A180FEF760FAC9
:1026400002200190A0880325039500906946206828
:10265000FEF79AFDA068FEF753FA00200190A089CA
:1026600000900120CDE902056946A068FEF78CFDC7
:102670007FBD000000080140C4000020FEE700000C
:1026800010B50748FFF77AF90322141F11462046B8
:10269000FEF7C6FE2046BDE81040FEF7B4BE0000BF
:1026A000401901000FB4054B10B503A9044A029864
:1026B00000F074F910BC5DF814FB000099350008B7
:1026C000BC000020490050EAC12018BF04204A0D78
:1026D00018BF40F0010040F2FF72B2EB515F08BF3B
:1026E00040F00200012808BF0520704741000802A1
:1026F00018BF04200A0E18BF40F001004FF07F42BF
:1027000032EA010108BF40F00200012808BF05209D
:1027100070470907090E002804DB00F1E02080F86B
:102720000014704700F00F0000F1E02080F8141D45
:1027300070472DE9F0414F1E00EBC7010446D1E977
:10274000000115461E4637F006020DD02A463346D4
:10275000FDF797FE7F1E04EBC703D3E90023FDF7C7
:10276000E9FD37F00602F1D1022F25D0042F13D056
:10277000062F18BFBDE8F0812A463346FDF781FEDB
:10278000D4E90A23FDF7D6FD2A463346FDF779FE44
:10279000D4E90823FDF7CEFD2A463346FDF771FE46
:1027A000D4E90623FDF7C6FD2A463346FDF769FE48
:1027B000D4E90423FDF7BEFD2A463346FDF761FE4A
:1027C000D4E90223FDF7B6FD2A463346FDF759FE4C
:1027D000D4E90023BDE8F041FDF7ACBD0122FEF7CE
:1027E0007EB80022134610461146FEF709B80000D5
:1027F000024A00201107FEF772B8000001FDFFFF3A
:10280000FDF7C4BC6FF05E010807FDF787BD02E06D
:1028100008C8121F08C1002AFAD17047704700206B
:1028200001E001C1121F002AFBD170470149086075
:1028300070470000C00000202DE9FF5FDDE90220A5
:10284000010DDDF838B0024318D044F61050A1F263
:10285000FF3141430D140F98012820D0A5EB0B0048
:10286000401C5FEA000A4FF00004474EDFF81C915D
:10287000A046504616D5CAF1000728E00F9801245B
:1028800043A2012808D0002100980F9BC0E9002135
:10289000C0E90243BDE8FF9F6FEA0B01F4E7CBF10B
:1028A0000000DEE7074612E0F80707D0224633466D
:1028B00040464946FDF7E5FD8046894622463346B7
:1028C00010461946FDF7DDFD04460E467F10002F29
:1028D000EAD1DDE90201BAF1000F42464B4602DAC5
:1028E000FDF7CFFD01E0FDF78BFF04460E46002209
:1028F000284BFEF723F803D84FF0FF30014607E0DE
:102900000022254B20463146FDF714FDFDF7FEFF62
:10291000102409E0002C0ADB0A220023FDF78AFEBE
:10292000019B30321A55641E50EA0102F2D1641C38
:10293000019AC4F1110314440F9A012A03D0012211
:1029400008430DD10AE0084304D000204FF0110BDA
:102950000F9080E7A3EB0B056D1E0DE05B4504DDDA
:102960004FF0000205F1010504E003DA4FF0000228
:10297000A5F10105002AECD000980F99C0E90231B9
:10298000C0E9004586E70000000024400000F03F59
:10299000300000000000F0430000E03F2DE9FF4F51
:1029A00095B09B468946064600250FE2252877D13B
:1029B00000242746F84A0121059400E0044316F854
:1029C000013F203B01FA03F01042F7D130782A286A
:1029D00011D06FF02F033078A0F13002092A16D8F9
:1029E000059A44F0020402EB820203EB4202104417
:1029F000761C0590EFE759F8042B0592002A03DABC
:102A0000504244F40054059044F00204761C30789F
:102A10002E2816D116F8010F44F004042A280DD0F0
:102A20006FF02F023078A0F13003092B09D807EBA3
:102A3000870302EB4303C718761CF3E759F8047BBE
:102A4000761C30786C280FD006DC4C2817D068280C
:102A50000DD06A2814D104E0742810D07A280FD140
:102A60000DE044F400140AE044F4801401E044F45E
:102A700040147278824202D104F58014761C761CD0
:102A8000307866280BD013DC582877D009DC002872
:102A900075D04528F6D04628F4D047281AD19DE1B4
:102AA00018E0632835D0642879D0652812D195E1E3
:102AB000702873D008DC6728F1D069286FD06E28A1
:102AC0000DD06F2806D1B5E073282CD0752875D0AD
:102AD000782874D05A46179990476D1C75E1C4F355
:102AE0000250022809D003280DD0D9F8001004287C
:102AF0000DD00D6009F1040967E1D9F80010EA175B
:102B0000C1E90052F6E7D9F800100D80F2E70D7028
:102B1000F0E719F8041B8DF8001000208DF8010073
:102B2000EA46012003E059F804AB4FF0FF3061079B
:102B30004FF0000102D40DE008F101018846B942CE
:102B40000FDA8045F8DB1AF808100029F4D108E004
:102B500008F1010188468142FADB1AF808100029C1
:102B6000F6D105985B46A0EB080721463846179A30
:102B700000F094FA284400EB080507E04DE029E155
:102B80000DE01AF8010B5A4617999047B8F1010861
:102B9000F7D25B4621463846179A13E142E00A22F3
:102BA0000092C4F302524FF0000A022A08D059F8EA
:102BB00004CB032A4FEAEC710AD00DE029E02AE0A9
:102BC00009F1070121F00702F2E802C1914609E08C
:102BD0000FFA8CFC4FEAEC71042A03D14FFA8CFCFB
:102BE0004FEAEC71002907DA0A460021DCF1000CFB
:102BF00061EB02012D2202E0220504D52B228DF883
:102C00000420012203E0E20701D02022F7E79046EA
:102C100059E00A2102E010220DE010214FF0000AD5
:102C200000910BE010224FF0000A44F00404082742
:102C3000009203E008224FF0000A0092C4F302520F
:102C4000022A05D059F804CB0021032A08D009E054
:102C500009F1070121F00702F2E802C1914605E0FF
:102C60001FFA8CFC042A01D10CF0FF0C4FF0000875
:102C7000220728D5702806D0009B83F0100353EA62
:102C80000A0305D00EE040228DF80420012208E05E
:102C90005CEA010206D030228DF804208DF8050090
:102CA00002229046009B83F0080353EA0A030AD1EC
:102CB0005CEA010201D1620705D530228DF80420BB
:102CC0004FF001087F1E582804D034A003900EA8AE
:102CD00002900DE036A0F9E753466046009AFDF7F2
:102CE000A9FC84460398825C0298401E0290027000
:102CF0005CEA0100F0D1029806A9081A00F1200A46
:102D0000600702D524F4803400E00127574502DD36
:102D1000A7EB0A0000E0002000EB0A0100900598F4
:102D20004144401A0590E00306D45B462146179AB9
:102D3000059800F0B3F90544002706E001A85A46BB
:102D4000C05D179990476D1C7F1C4745F6DBE0037B
:102D50000CD55B462146179A059800F09FF905446B
:102D600004E030205A46179990476D1C0099481E80
:102D700000900029F5DC08E0029802995A46007894
:102D8000491C0291179990476D1CBAF10001AAF1F4
:102D9000010AF1DC65E1000009280100303132331D
:102DA0003435363738396162636465660000000087
:102DB0003031323334353637383941424344454671
:102DC0000000000000F058F90544761C3078002817
:102DD0007FF4ECAD19B02846BDE8F08F620700D44F
:102DE000062709F1070222F0070CFCE80223E1465E
:102DF00003F000485FEA080C02D00FF2702C0DE0DF
:102E00005FEA045C02D50FF2682C07E05FEAC47C3D
:102E100002D00FF2602C01E0AFF2700C4FF0FF38DF
:102E200023F00043CDF850C065280CD006DC4528BF
:102E300009D046281DD047283DD13DE0662818D04E
:102E400067287ED138E00021112F01DB112000E03E
:102E5000781CCDE9000106A90EA8FFF7EDFCDDE91D
:102E60000F010E9A03910021009207F1010A0491CB
:102E70004DE04FF000400097CDE9011006A90EA8E3
:102E8000FFF7DAFCDDE90F0203920E9B1199002295
:102E9000DDF80CA00093049211B9791C00EB010A33
:102EA000B7EB0A0004D4C0F1FF3007F1010A049027
:102EB000AAEB0700019044E0012F00DA012700216E
:102EC000112F01DD112000E03846CDE9000106A9EF
:102ED0000EA8FFF7B1FCDDE90F010E9A0391002166
:102EE00004910092BA4621070CD40399514500DAA7
:102EF0008A46BAF1010F05DD009AAAF10101515C81
:102F0000302908D0B84202DA10F1040F06DA0121A4
:102F1000CDE9011015E0AAF10101E9E7002805DC7F
:102F2000049901440491AAEB000102E0411C5145BF
:102F300000DD8A460499401A401C01904FF0004081
:102F40000290200704D40198504501DBCDF804809D
:102F500000208DF84F0002980DF14F07B0F1004F9F
:102F600025D02B200E9002984FF0020800280CDA92
:102F7000404202902D200E9007E00A210298FDF7B2
:102F800043FB3031029007F8011DB8F10001A8F1B0
:102F90000108F2DC02980028EFD1791E0E98087023
:102FA000307800F0200040F0450007F8020D12A82C
:102FB000C01B00F107081498007800B1012000EB55
:102FC0000A01019801EBE07105984144401A401E46
:102FD0000590E00306D45B462146179A059800F059
:102FE0005DF805441498007818B15A46179990472F
:102FF0006D1CE00324D55B462146179A059800F026
:103000004DF805441CE00498002807DBDDE90301C6
:10301000884203DD0098405C179901E01799302041
:103020005A469047049805F10105401C0490019808
:10303000401E019004D12E205A46179990476D1CCE
:10304000BAF10001AAF1010ADDDC05E017F8010B75
:103050005A46179990476D1CB8F10001A8F1010874
:10306000F4DC5B462146179A0598ABE62D0000007C
:103070002B000000200000002DE9F041044600254F
:103080001E461746880404D405E039462020B04780
:103090006D1C641EF9D52846BDE8F0812DE9F0418C
:1030A000044600251E469046C80301D5302700E09F
:1030B0002027880404D505E041463846B0476D1CFA
:1030C000641EF9D52846BDE8F08100002DE9F04DD9
:1030D0008D4F21F0004A86B005460C46BA452ADBE2
:1030E000AAEB070028430AD08848824501DC1AD1A0
:1030F000CDB106B02846BDE8F04DFFF76FBB844A5E
:10310000844B2846FDF7BDF907460E46824A834B9D
:1031100028462146FDF7B5F906B03A463346BDE8E4
:10312000F04DFDF707B90120FFF780FB06B0BDE8C1
:10313000F04DFFF756BB7A48824542DABAF1795F23
:103140000BDA2846FFF7BEFA042808BFFFF750FB4A
:10315000284606B02146BDE8F08D2A460B461046AB
:10316000FDF78FF9834602466E480E460B46062150
:103170007844FFF7DEFA5A463346FDF782F9804677
:1031800069488A465A46334604217844FFF7D1FA03
:103190005A463346FDF775F900223B46FDF7CAF85B
:1031A00002460B4640465146FDF72AFB2A46234677
:1031B000FDF767F906B02A462346BDE8F04DFDF756
:1031C000B9B8284624F0004100223D463B46FDF7B1
:1031D00055F94FF0FF32FDF782FB06460246534891
:1031E0000F460B4606217844FFF7A3FA32463B46CA
:1031F000FDF747F9CDE900014D4832463B46042131
:103200007844FFF796FA32463B46FDF73AF900223A
:103210002B46FDF78FF8834602913046394600F081
:1032200041FA804643480D46504517DCDDE9000170
:103230005A46029BFDF7E4FA42462B46FDF721F978
:1032400042462B46FDF776F80122FDF748FB304A4F
:10325000304BFDF710F9304A304B4CE04FF0000A8C
:1032600052460B464046FDF765F8CDE9031052463D
:103270002B4610461946FDF704F932463B46FDF74A
:10328000FDF8DDE90332FDF7BBFA06460F46DDE93E
:1032900000015A46029BFDF7B3FA834600910122D2
:1032A00030463946FDF71BFB194A1A4BFDF7E6F885
:1032B00006460F46012240462946FDF710FB5A46B6
:1032C000009BFDF7DEF832463B46FDF7D4F8064694
:1032D0000F46012250462946FDF701FB0E4DDFF84F
:1032E00058802A464346FDF7C9F832463B46FDF76B
:1032F000C5F82A464346FDF7C1F8002CD8BF81F037
:10330000004106B0BDE8F08D0000F03F0000F07F06
:10331000075C143326A6913C182D4454FB21F93F39
:103320000000E03FA4050000BA0500002E050000E3
:10333000440500003333EF3FFB21E93F2DE9F0471F
:103340004FF0684202EB40030C460546B3F1654F6F
:103350003CBF02EB4102B2F1654F7CD2C0F3C753D0
:10336000C1F3C7529A1A1B2A06DD10F0004F14BF92
:1033700076487748BDE8F08712F11A0F17DA11F096
:10338000004F06D010F0004F0CBF72487248BDE8E5
:10339000F08721462846FCF783FF0446FFF7A6F98D
:1033A000042808BFFFF72EFA2046BDE8F087420048
:1033B000B2EB410F25D910F0004F19BF674F684E8F
:1033C000684F694E224685F0004415460A4680F053
:1033D000004110460A1A5200B2F1807F40D24840A4
:1033E0006249DFF88CA110F0004F18D04FF03F4831
:1033F0003846FCF71DFF074651463046FCF718FFDC
:1034000017E011F0004F04BF00263746E2D010F05D
:10341000004F19BF574F584E584F594EDAE74FF0EB
:103420007C583846FCF7B2FE074651463046FCF75A
:10343000ADFE064641462846FCF700FF2146FCF754
:10344000A5FE824621464046FCF7F8FE2946FCF7D9
:10345000F2FE514600E037E0FCF722FF044604E0AC
:1034600021462846FCF71CFF04460146FCF7E6FE11
:1034700080464449FCF7E2FE4349FCF787FE41469B
:10348000FCF7DCFE4149FCF781FE4146FCF7D6FE25
:103490003F49FCF77BFE4146FCF7D0FE3D49FCF777
:1034A00075FE054641462046FCF7C8FE2946FCF756
:1034B000C5FE3146FCF76AFE2146FCF767FE394639
:1034C000BDE8F047FCF762BE4FF07F42B2EB400F21
:1034D00028BFB2EB410F03D2BDE8F047FFF790B928
:1034E00040EA01035B0008BF44F0FF410AD0B2EBA1
:1034F000400F08BFB2EB410F06D125F0804024F009
:10350000804105460C4629E7B2EB400F12BF5FEA47
:10351000410245F0FF4004F000413FF41FAF4A0074
:1035200092EA40033FF51AAF002AACBF4FF09F4626
:103530004FF03E563146FCF781FE054631462046A7
:10354000FCF77CFE04462846214607E7DB0FC9BF8F
:10355000DB0FC93FDB0F4940DB0F49C00000C9BF8B
:1035600022AAFDB90000C93F22AAFD390060ED3E44
:10357000C30ACE37000049C022AA7DBA00004940E4
:1035800022AA7D3A2DAD65BD8FB8D53D0FB511BED0
:1035900061C84C3EA8AAAABE38B504468DF8000002
:1035A0000223012269460248FEF7AAFA204638BDE6
:1035B000C40000202DE9F0418846044601690068F6
:1035C000FCF7E4FD606005466169FCF7DFFD01463C
:1035D0002846FCF765FEE060A76806463946404687
:1035E000FCF726FE3146FCF729FE3946FCF7CEFDF6
:1035F000A06031464FF07E50FCF71AFE2946FCF7DA
:103600001DFE2060BDE8F081FDF7CAFEFEF736FE24
:10361000FDF75CFAFFF734F8114800F029F84FF491
:10362000E130FEF795FFFEF7F7FAFEF75BFD4FF48A
:10363000FA60FDF731FA0BA0FFF734F80B4E0027C4
:103640005FF0000406EB04152878012802D1E86831
:1036500080472F70641CE4B2032CF3D3F0E7000022
:103660007D3600086F6B0D0A00000000240000206A
:1036700001490860704700000800002010B50020D4
:10368000074A012302EB00114C6814B90B708C68D7
:103690004C60641E401CC0B24C600328F2D310BDC5
:1036A000240000202DE9F04106460F46FDF780F981
:1036B00004000D4618BF0120284320F00040C0F14F
:1036C0007F6000F1E040C00F0ED0301C18BF012019
:1036D000384320F00040C0F17F6000F1E040C00FAF
:1036E00004BF0120FFF7A2F820462946BDE8F0817B
:1036F00000000000000000000102030406070809A2
:103700000000000001020304E12E6542F6FF793D4E
:103710002E9E8B3A00000000555555555555C53F16
:103720007D6FEB0312D6D4BF5544880E55C1C93FF7
:103730003B8F68B52882A4BF88B20175E0EF493F8E
:1037400009F7FD0DE13D023F4B2D8A1C273A03C0CE
:10375000C88A599CE52A004059018D1B6C06E6BFBA
:1037600082922EB1C5B8B33F883700080000002010
:10377000C40000000E2800084C380008C4000020D7
:10378000341500001E2800080024F400000000008A
:103790000000000000000000000000000000000029
:1037A0000100000010000000000000000000000008
:1037B000020000000200000051100008000000009C
:1037C0000400000004000000550A0008000000008A
:1037D000F4010000F401000071210008D40500206C
:1037E0000AD7A33C00000000000000000000000019
:1037F0006F12833A0C020B3F0AD7A33C0000000073
:1038000000000000000000006F12833A0C020B3F22
:103810000AD7A33C000000000000000000000000E8
:103820006F12833A0C020B3FCDCC4C3F52499D396D
:10383000000000000000803F0000000000000000C9
:0C3840000000000000000000000000007C
:0400000508000131BD
:00000001FF
