:020000040800F2
:100000007839002045010008772500088F24000872
:100010007525000885080008C937000800000000A1
:100020000000000000000000000000009131000806
:10003000B508000800000000F92500089531000807
:100040005F0100085F0100085F010008B926000891
:100050005F0100085F0100085F0100085F01000800
:100060005F0100085F0100085F0100085F010008F0
:100070005F0100085F0100085F0100085F010008E0
:100080005F0100085F0100085F0100085F010008D0
:100090005F0100085F0100085F0100085F010008C0
:1000A0005F0100085F0100085F0100085F010008B0
:1000B0005F010008593200085F0100085F01000875
:1000C0005F0100085F0100085F0100085F01000890
:1000D0005F010008493600085F0100085F01000861
:1000E0005F0100085F0100085F0100085F01000870
:1000F0005F0100085F0100085F0100085F01000860
:100100005F0100085F0100085F0100085F0100084F
:100110005F0100085F0100085F0100085F0100083F
:100120005F0100085F0100085F0100085F0100082F
:10013000DFF80CD000F094FB004800476D5B00082E
:10014000783900200648804706480047FEE7FEE76A
:10015000FEE7FEE7FEE7FEE7FEE7FEE7FEE7FEE777
:1001600011320008310100082DE9F05F054600203A
:1001700092469B4688460646814640241BE0284618
:1001800041464746224600F0ECFA53465A46C01A0A
:10019000914110D311461846224600F0D3FA2D1A89
:1001A00067EB01084F4622460120002100F0CAFA01
:1001B00017EB00094E41201EA4F10104DFDC484684
:1001C00031462A464346BDE8F09F2DE9F041002420
:1001D000061B254671F1000605DA01240027D0EB45
:1001E000070067EB0101161E73F1000605DA002710
:1001F000D2EB0702012567EB0303FFF7B5FF864645
:100200000E4617469C46AC4204D00025D0EB050EA6
:1002100065EB010624B10020D2EB000760EB030C74
:10022000704631463A466346BDE8F081014610B556
:1002300009683C22B1FBF2F302FB1313B1FBF2F1AC
:100240001D480360B1FBF2F302FB1313B1FBF2F1A3
:1002500018224360B1FBF2F302FB1313B1FBF2F17E
:1002600083600A1D0723B2FBF3F403FB14228261AF
:100270008A0040F2B55102F66C32B2FBF1F344331E
:100280004361B2FBF1F301FB13218908C1613B29F2
:1002900003D3027D920700D0491C0022074C13466D
:1002A0000261E25C8A4203D8891A5B1C0361F8E7A9
:1002B000491CC16010BD0000482900206668000884
:1002C00040EA01039B0703D009E008C9121F08C0D8
:1002D000042AFAD203E011F8013B00F8013B521E58
:1002E000F9D27047D2B201E000F8012B491EFBD2CF
:1002F00070470022F6E710B513460A460446194631
:10030000FFF7F0FF204610BDCAB2401E10F8011FD3
:100310008A4202D00029F9D100207047421C10F80F
:10032000011B0029FBD1801A704730B5044600201C
:10033000034600E05B1C934203D2E05CCD5C401BB3
:10034000F8D030BD2DE9FE4F804681EA0300C00F92
:100350000C46009021F0004123F00045B8EB02006C
:10036000A94105D24046214690461C460B4602460E
:1003700023F00040104347D0270DC7F30A00C3F312
:100380000A510290401A019040286BDAC3F313001F
:1003900040F4801B0098924620B10023D2EB030A60
:1003A00063EB0B0B01985946C0F14002504600F038
:1003B000C9F906460D4650465946019A00F0E1F942
:1003C00010EB08006141002487EA115284EAE773C8
:1003D0001A4340D0009A62B3019A012A4FEA0752A9
:1003E00015DC001B61EB02014FF0004202EA0752EC
:1003F000CDE90042001C41F5801132462B4600F049
:10040000E1F903B0BDE8F08F40462146F9E7001B53
:1004100061EB0201001C41F5801300185B412018BC
:10042000A2F5001747EB030140EAD570B6196D41FC
:1004300011E06D084FEA360645EAC0754FEA0752EB
:10044000001B61EB0201001C41F5801149084FEAD5
:1004500030000019514132462B4603B0BDE8F04F41
:1004600000F0A1B90098012240000023D0EB020265
:1004700063EBE073009821464FEAE074B8EB0000AC
:1004800061EB0401E9E783F000435BE781F00041A1
:1004900058E72DE9FE4F81EA030404F0004421F0FF
:1004A000004100944FF0000B23F0004350EA010498
:1004B0005ED052EA03045BD0C3F30A54C1F30A5579
:1004C0002C44A4F2F3340194A0FB0254C1F31301B1
:1004D00041F48011C3F3130343F4801301FB02447E
:1004E00000FB034E840A970A44EA815447EA835783
:1004F000A4FB076802958D0A05FB07854FEA932C3C
:1005000004FB0C542705029D4FEA065847EA1637AC
:10051000B5EB08056EEB070C870E920E47EA8117C4
:1005200042EA8312A7FB0201B6EB0B0164EB000465
:100530002B0D43EA0C335E1844EB1C50DA4651464F
:10054000E7FB0201C5F313044FEA0B3343EA1453EC
:100550004FEA0432019C43EA0603A4F10C0402941E
:10056000009CCDE900B400F02DF903B0BDE8F08F98
:1005700000200146F9E72DE9F04D81EA030404F07B
:10058000004B21F0004514464FF0000A23F00041D3
:1005900050EA050220D054EA01021DD0C5F30A57E3
:1005A0000246C5F31303C1F31300C1F30A5640F426
:1005B000801543F48013A7EB0608101BD64608F2FB
:1005C000FD3873EB050002D308F1010801E0921831
:1005D0005B41B8F1000F03DA00200146BDE8F08D61
:1005E00000204FF48011064684460EE0171B73EB83
:1005F000050705D3121B63EB050306434CEA010C08
:1006000049084FEA300092185B4150EA0107EDD1EA
:1006100052EA030012D082EA040083EA050108438B
:1006200005D0101BAB4106D20122002306E00022B8
:100630004FF0004302E06FF0010253101AEB060086
:100640004CEB085110EB0A0041EB0B01BDE8F04DFB
:1006500000F0A9B870B521F0004303430CD0C1F3FA
:100660000A550024D5EB040564EB0403D617AD1A34
:10067000B34102DB0020014670BD201841EB02515E
:1006800070BD0EB5C10F80EAE0700844CA070021B2
:1006900040F233438DE80E000A460B4600F092F814
:1006A00003B000BD70B5C1F30A5201F0004500244B
:1006B000C1F3130140F2FF3341F480119A4201DA91
:1006C000002070BD40F233439A42A2F2334203DC71
:1006D000524200F046F800E090402C43F1D04042F6
:1006E00070BD000030B5041E71F1000404DB4FF052
:1006F0000044404264EB0101141E73F1000405DB69
:100700001C464FF00043524263EB04038B4208BF88
:10071000824230BD30B5041E71F1000404DB4FF09D
:100720000044404264EB0101141E73F1000405DB38
:100730001C464FF00043524263EB0403994208BF4A
:10074000904230BD202A04DB203A00FA02F100205A
:1007500070479140C2F1200320FA03F319439040FF
:100760007047202A04DB203A21FA02F0002170476A
:1007700021FA02F3D040C2F1200291400843194609
:100780007047202A06DBCB17203A41FA02F043EAF1
:10079000E07306E041FA02F3D040C2F1200291403A
:1007A00008431946704710B5141E73F1000408DAA7
:1007B000401C41F1000192185B411A4301D120F025
:1007C000010010BD2DE9F04D92469B4611B1B1FAE2
:1007D00081F202E0B0FA80F220329046FFF7B2FFD9
:1007E00004460F4640EA0A0041EA0B0153465A46C6
:1007F000084313D0114653EA010019D0C8F1400252
:100800005046FFF7AEFF05460E4650465946424653
:10081000FFF798FF084305D0012004E02046394641
:10082000BDE8F08D0020054346EAE0762C433743CF
:100830000A986305E40AA0EB08000022FD0A44EAD6
:1008400047540A3002D500200146E9E70105101996
:100850006941DDE9084500196941BDE8F04DA2E7AD
:10086000064C074D06E0E06840F0010394E80700FD
:1008700098471034AC42F6D3FFF75EFC746800086A
:1008800094680008FEE701F027BF30B590F84050AB
:100890000124AC40C56B6C60046863604368102B36
:1008A000036803D099600068C26030BD9A60006838
:1008B000C16030BD704770B5054600244FF47A76AC
:1008C00003E0304600F004F8641CAC42F9D370BD7C
:1008D000044A516800EBC000C00053685B1A8342B1
:1008E000FBD37047001000E00A48016821F08071D6
:1008F0000160016841F0807101600748016821F0E2
:1009000001010160016841F00101016000214160C5
:1009100070470000FCED00E0001000E010B500F0B2
:10092000E9FA02F047FCFFF7DFFF02F04FFF4FF458
:10093000E13002F0B3FE01F0F7FD00F075F801F0D0
:10094000CBFD01F0A5FD02F0FBFBBDE81040FFF779
:100950009ABF000000B51B4889B0007850B133221F
:1009600019A11B4804F072F930B11AA002F040FF3F
:1009700009B000BD1BA0F9E71EA205AB07CA83E8BA
:10098000070014216846FFF7B4FC05AA1CA1104813
:1009900004F03DFA01461BA002F02AFF0C4803F0C8
:1009A00021FE012208A10A4804F050F9084A092151
:1009B000684603F026FE0028DAD0694615A002F04A
:1009C00017FFD5E731000020303A746D7000000049
:1009D00078160020665F6F70656E206572726F72A8
:1009E0000D0A000066696C65207379732067670DD6
:1009F0000A00000068656C6C6F20796A7400000062
:100A000025730000746865207265742025640D0AE2
:100A100000000000746865207265616420697320BD
:100A200025730D0A0000000010B5ADF5805D0122B0
:100A300014A1154804F0E4F8144C01460D2816D111
:100A40004FF480536A4600210EA003F0FDFD010023
:100A50000ED10FA002F0CCFE01220AA1002004F06A
:100A6000CFF8012207A1084804F0CAF8014621B1D5
:100A700007A002F0BDFE002000E0012020700DF56F
:100A8000805D10BD303A000040060020310000209B
:100A90002564207468652065727220636F64650D3B
:100AA0000A000000274A08B52749904207D1886903
:100AB00040F004008861886900F0040009E0234ADE
:100AC000904208D1886940F008008861886900F088
:100AD0000800009008BD1E4A904207D1886940F086
:100AE00010008861886900F01000F2E7194A90420E
:100AF00007D1886940F020008861886900F02000F3
:100B0000E7E7154A904207D1886940F040008861C4
:100B1000886900F04000DCE7104A904207D18869FC
:100B200040F080008861886900F08000D1E70C4ABD
:100B30009042CFD1886940F480708861886900F460
:100B40008070C6E70008014000100240000C014020
:100B5000001001400014014000180140001C014039
:100B6000002001400A49086840F010000860084869
:100B700014300068020406481830006810430A6800
:100B800022F010020A600A689206FCD57047000045
:100B90000428004010B590F821100022022905D049
:100BA0000421816380F82020012010BD01680B68BA
:100BB00023F00E030B6001680B6823F001030B6048
:100BC00090F84030C46B012101FA03F3636080F8B0
:100BD000211080F82020104610BD000030B560B113
:100BE0001A4B026814219A4209D2194B1344B3FBE1
:100BF000F1F18900016417490AE0012030BD134B6F
:100C00005B421344B3FBF1F1890001640F490839D9
:100C1000C163022180F82110136843F6F0718B4301
:100C2000F0E901142143D0E902452C432143046932
:100C30002143446921438469214319431160002100
:100C40004163012242770177084630BD0804024023
:100C5000F8FFFDBF0000024070B5044690F8200088
:100C6000002501280CD0012084F8200094F8216090
:100C70000020012E06D084F820000225284670BDF1
:100C8000022070BD022684F82160A06320680668F7
:100C900026F0010606602046FFF7F7FDE06A00280F
:100CA0002068016802D041F00E0106E021F0040145
:100CB00001602068016841F00A0101602068016854
:100CC00041F001010160D9E770B5054600244FF4F9
:100CD0007A7603E03046FFF7FBFD641CAC42F9D3A3
:100CE00070BD00002DE9F84FDFF8C891002409F12C
:100CF000040A0AF1040B23460F270BF1040ED1E07E
:100D00000125A54006EA0502AA4276D1DFF8A8C16E
:100D10004E68A6EB0C0866452BD00DDC032E34D0B4
:100D200005DC36B3012E19D0022E2FD11BE0112E77
:100D300016D0122E2AD119E0B8F5881F19D006DC7A
:100D4000B8F5803F15D0B8F5801F1FD111E0B8F578
:100D5000001F0ED0B8F5041F18D10AE0CB6815E0CB
:100D6000CB681B1D12E0CB6808330FE0CB680C3357
:100D70000CE08B682BB1012B4FF0080303D04561C9
:100D800004E0042302E0056100E00023FF2A01D80B
:100D9000064601E000F104064FEA840501D9A5F1F9
:100DA0002005D6F8008007FA05FC28EA0C0803FAAB
:100DB00005F548EA0508C6F800804D68ED0070D5D5
:100DC0003E4DAE6946F00106AE61AD6924F0030602
:100DD00005F0010500953A4D06EB050CDCF80850CE
:100DE000A607360F07FA06F825EA0805DFF8D480CB
:100DF000404503D14FF0000825E052E0DFF8C880FD
:100E0000404502D14FF001081DE0DFF8C0804045A9
:100E100002D14FF0020816E0DFF8B480404502D15D
:100E20004FF003080FE0DFF8AC80404502D14FF0EF
:100E3000040808E0DFF8A080404502D14FF0050823
:100E400001E04FF0060808FA06F848EA0508CCF871
:100E500008804D68D9F80060ED034D4601D5164372
:100E600000E096432E604D68DAF80060AD03554609
:100E700001D5164300E096432E604D68DBF8006014
:100E8000ED025D4601D5164300E096432E604D68A5
:100E9000DEF80060AD02754601D5164300E09643CA
:100EA0002E60641C0A681646E2407FF429AFBDE854
:100EB000F88F0000000401400000111000100240F3
:100EC0000000014000080140000C014000100140FA
:100ED0000014014000180140001C01400AB10161EA
:100EE00070470904FBE70000014880687047000074
:100EF00034000020074810B5016841F0100101607E
:100F0000032000F057F80F2000F006F800F024F856
:100F1000002010BD0020024070B50D4D04464FF476
:100F20007A712878B1FBF0F00A490968B1FBF0F05A
:100F300001F0A5F848B9102C07D200222146501E16
:100F400000F018F800206C6070BD012070BD00003A
:100F500034000020000000207047002809DB00F06A
:100F60001F02012191404009800000F1E020C0F8FB
:100F700000117047F0B40E4B1B680C46C3F30223FC
:100F8000C3F10705042D00D90425191D072901D235
:100F9000002300E0DB1E012606FA05F1491E214070
:100FA00099409E40761E16403143F0BC02F030BCA2
:100FB0000CED00E0064900F0070208684FF6FF0359
:100FC000184040EA0220034A1043086070470000BE
:100FD0000CED00E00000FA050149012008627047AD
:100FE00000000E4210B52CA401461DCC86B08DE841
:100FF0001D002DA02D4C00680490002004292FD046
:101000000BDC01292FD0022928D100F071F9616889
:10101000C1F38131491C49001EE0082920D0102964
:101020001CD161682268D20118D5C1F38342C9037B
:101030001DF8020009D5616804AAC1F34041515C62
:101040001B4AB2FBF1F1484301E01A494843616889
:10105000490203D440000321B0FBF1F006B010BDFB
:1010600000F056F9FAE7226AC2F30121012903D1FF
:10107000920701D5C803F1E7022905D1626A9207F8
:1010800002D549F64040E9E70329E7D12168890301
:10109000E4D54FF22440E1E70203040506070809FE
:1010A0000A0B0C0D0E0F1010010200000010024080
:1010B00000127A0000093D002DE9F843054600784A
:1010C000354CC00754D0E0690026C00008D4E06960
:1010D00040F08050E061E069012600F0805000900F
:1010E0002E480168C90512D40168804641F4807118
:1010F0000160FFF7F9FE074605E000BFFFF7F4FEC9
:10110000C01B642823D8D8F80000C005F6D5206A93
:1011100010F4407021D0A98801F4407181421CD0A4
:10112000206A1F49012220F440700A6000220A60F0
:101130002062C00711D0FFF7D7FE074641F288387A
:1011400008E000BFFFF7D0FEC11B414502D90320D4
:10115000BDE8F883206A8007F4D5206A696820F426
:101160004070084320621EB1E06920F08050E061C9
:101170002878800705D56068A96820F440400843B6
:1011800060602878C00605D56068696920F4800031
:10119000084360600020DBE7001002400070004060
:1011A000400442422DE9F0470F46050061D0434E0E
:1011B000306800F00700B84209D2306820F007001C
:1011C00038433060306800F00700B84251D12868D9
:1011D0003B4C810712D5400703D5606840F4E060BE
:1011E00060602878000703D5606840F46050606054
:1011F0006068A96820F0F000084360602878C007A4
:1012000028D06868012810D02168022810D08907EA
:1012100000292EDA616821F0030101436160FFF7C4
:1012200063FE804641F288390DE021688903EFE7CB
:101230008901EDE7FFF758FEA0EB0801494502D907
:101240000320BDE8F0876068696800F00C00B0EB2F
:10125000810FEFD1306800F00700B8420BD9306839
:1012600020F0070038433060306800F00700B842D3
:1012700001D00120E5E72878400705D56068E968D6
:1012800020F4E060084360602878000706D56068B5
:10129000296920F4605040EAC100606000F038F82D
:1012A0006168084AC1F30311515CC84006490860EF
:1012B00006480068FFF730FE0020C2E70020024029
:1012C00000100240D2630008000000203800002017
:1012D0000448054900684968044AC1F30221515C89
:1012E000C84070470000002000100240E263000880
:1012F0000448054900684968044AC1F3C221515CA9
:10130000C84070470000002000100240E26300085F
:1013100012A185B00FC98DE80F0014A0144A00680F
:1013200004905168134801F00C03042B10D0082BD3
:101330000ED1C1F38343C9031DF803000AD55168D8
:1013400004AAC1F34041515C0A4A5043B0FBF1F09A
:1013500005B0704708494843FAE700000203040556
:10136000060708090A0B0C0D0E0F101001020000F1
:101370000010024000127A0000093D002DE9F84FEC
:10138000040070D02078C04DC00749D06868C0F311
:101390008100012807D06868C0F38100022809D1C4
:1013A0006868C00306D52868800339D560680028BE
:1013B000E7D035E06068B0F5803F0BD010B1B0F5F4
:1013C000A02F11D0286820F480302860286820F4ED
:1013D000802002E0286840F480302860606890B186
:1013E000FFF782FD06460AE0286840F48020286066
:1013F000F0E700BFFFF778FD801B642873D82868EA
:101400008003F7D50CE0FFF76FFD064605E000BF4F
:10141000FFF76AFD801B6428F0D828688003F7D4A2
:1014200020789A4E80074FF001094FF0000839D517
:10143000686810F00C0F07D06868C0F381000228BC
:1014400009D16868C00306D42868800714D52069CC
:10145000012808D110E02069B0B1C6F80090FFF76C
:1014600043FD074605E00AE1FFF73EFDC01B0228E9
:10147000C4D828688007F7D52868616920F0F8008B
:1014800040EAC10028600DE0C6F80080FFF72CFD9F
:10149000074604E0FFF728FDC01B022823D8286870
:1014A0008007F7D4207800072CD57948A169D9B1F5
:1014B000C0F80090FFF718FD074604E0FFF714FDA1
:1014C000C01B02280FD8686A8007F7D571484FF40F
:1014D000FA510068B0FBF1F0009000BF0098411E87
:1014E0000091FAD20EE080E0C0F80080FFF7FCFC2B
:1014F000074604E0FFF7F8FCC01B022875D8686AAD
:101500008007F7D42078400760D5E8690027C0003D
:1015100008D4E86940F08050E861E869012700F0EC
:10152000805000905C480168C90513D40168834667
:1015300041F480710160FFF7D7FC824606E000BFEE
:10154000FFF7D2FCA0EB0A0064284ED8DBF80000BD
:10155000C005F5D5E06801280AD008B1052813D0E8
:10156000286A20F001002862286A20F0040002E0C6
:10157000286A40F001002862E06841F2883B98B197
:10158000FFF7B2FC82460BE0286A40F004002862B4
:10159000EEE700BFFFF7A8FCA0EB0A0159455AD8B7
:1015A000286A8007F6D50CE0FFF79EFC824605E02E
:1015B000FFF79AFCA0EB0A0159454CD8286A80072E
:1015C000F6D41FB1E86920F08050E861E06988B383
:1015D0006968C1F38101022944D00228C6F86080FD
:1015E00004D0FFF781FC044638E034E0FFF77CFCD0
:1015F000074604E0FFF778FCC01B02282BD82868B8
:101600008001F7D4206AB0F5803F05D16868A168F1
:1016100020F4003008436860D4E908010843696891
:1016200021F4741108436860C6F86090FFF75CFC11
:10163000044606E025E000BFFFF756FC001B022829
:1016400009D828688001F7D51BE000BFFFF74CFCE4
:10165000001B022802D90320BDE8F88F286880010A
:10166000F4D40EE00128F7D06868226A00F48031D3
:10167000914204D1616A00F47010884201D00120C7
:10168000EAE70020E8E700000010024000004242C4
:10169000800442420000002000700040024850F8E0
:1016A000210080B270470000006C0040024800EB4F
:1016B000810091B201607047006C004070B5040079
:1016C00003D0607C002610B105E0012070BD2674B7
:1016D000204600F043F802206074204600F03FF8F6
:1016E000042578BB204600F0B1FF58BB2068416854
:1016F00021F007014160A06820B11748016821F07E
:10170000010101601448001F0168A26821F46071A2
:10171000114301606068411C04D10120FFF762FCA5
:1017200080B1401E21688A6822F00F0242EA10420E
:101730008A602168CA6860F30F02CA60204600F020
:101740009FFF08B16574C0E7E67301206073A07362
:101750006074002070BD0000306C0040704770B5B0
:1017600004000AD02068416821F008014160FFF7B9
:10177000BBFB05464FF47A7608E0012070BDFFF709
:10178000B3FB401BB04201D9032070BD2068406804
:101790000007F4D5002070BD2DE9FE430446032068
:1017A0000F4684F83400606C03285AD0B7F5805F88
:1017B00057D04FF4006600254FF08068B7421CD127
:1017C000009501950021206801F018F8800121D4CE
:1017D0006946204601F038FB98BB0198400332D59A
:1017E000B4F850000104206801F03DF848BB022124
:1017F000206822E0A06B284327E01FB1A06B40F0D7
:10180000006022E0009501950021206800F0F6FFBD
:10181000800101D53546EDE76946204601F014FB0D
:1018200078B90198C0030ED5B4F8500001042068BF
:1018300001F019F828B90021206801F060F80028AB
:10184000D8D00546D6E74546D4E7A063A06B01256E
:1018500058B121680C48886384F834500120BDE8F1
:10186000FE83A06B40F08050EFE7211DD4E9050610
:101870000EC90097CDE90106206800F0C2FF84F888
:1018800034500020EBE70000FF05400050F8742FB3
:10189000120E0A700268120A4A8002784368120621
:1018A00042EA13224A6002790A728268120E4A7270
:1018B0008268C368120242EA1362CA60C268C2F355
:1018C00003520A74C268C2F30B224A82007BC0F33F
:1018D000460008750120487500207047F0B5426E3B
:1018E000920F0A70426EC2F383624A70426EC2F374
:1018F00001628A70426E120CCA70B0F86420120A3B
:101900000A7190F864204A71826E120DCA80826E4C
:10191000C2F303420A72B0F86820C2F3C0324A72BE
:10192000B0F86820C2F380328A72B0F86820C2F33F
:101930004032CA72B0F86820C2F300320A7300263F
:101940004E73426C4FF40075012462B1012A3AD003
:10195000026847499163816B41F08051816380F84F
:1019600034400120F0BDB0F86820C36E9205120D1E
:1019700042EA93720A61C26EC2F3C2620A75C26E13
:10198000C2F302624A75C26EC2F342528A75C26ED7
:10199000C2F38242CA75C26EC2F3C2320A760A69C3
:1019A000521C42650B7E03F007039B1C9A40426564
:1019B0000B7A03F00F0704FA07F383655B0A5A43B7
:1019C000C0E917250EE090F86820C36E9206920ACF
:1019D00042EA13420A610A69521C92024265C0E956
:1019E0001652056630F86C2FC2F3803201F8192FB9
:1019F0000288C2F3C6124A70027802F07F028A702F
:101A00004268D20FCA704268C2F341720A714268DA
:101A1000C2F382624A714268C2F383528A71426899
:101A2000C2F34052CA710E724268C2F300424A7257
:101A30008288C2F3C0328A728288C2F38032CA724C
:101A40008288C2F340320A738288C2F300324A733A
:101A50008288C2F381228A738288C2F30122CA7308
:101A60000079C0F3460008744C740020F0BD0000FB
:101A7000FF054000426C0A60826C4A60C26C8A605A
:101A8000026DCA60426D0A61826D4A61C26D8A61EF
:101A9000006EC8610020704770B50446B0F8500071
:101AA00000250104206801F034F818B1A16B01434E
:101AB000A16304E00021206800F0A0FE0546C5F304
:101AC000432070BD70B504000ED094F8340000259A
:101AD00018B92577204600F03BF8032084F834003D
:101AE000204600F00BF808B1012070BDA563256306
:101AF000012084F83400002070BD0000FEB50025F0
:101B0000044676200095CDE9015029460B460A4649
:101B1000206800F076FE08B10120FEBD0B4E46F8AD
:101B2000A05F206800F07FFE01253560204601F0AF
:101B30006DFA20B9204601F0F1F90028EDD084F8C3
:101B40003450A16B0143A163E6E70000000030427E
:101B5000344810B5416986B041F480614161416902
:101B600001F480610491816941F010018161816912
:101B700001F010010491816941F0100181618169D6
:101B800001F010010491816941F0100181618169C6
:101B900001F010010491816941F0100181618169B6
:101BA00001F010010491816941F0100181618169A6
:101BB00001F010010491816941F020018161806987
:101BC000194C00F0200004904FF480700090022027
:101BD0000190012002900320039069462046FFF700
:101BE00081F86015009069462046FFF77BF82015C4
:101BF000009069462046FFF775F8E01400906946AA
:101C00002046FFF76FF8A014009069462046FFF7C2
:101C100069F80420009069460448FFF763F806B0AD
:101C200010BD0000001002400010014000140140EF
:101C30002DE9F04F87B09B4616460D460446FFF748
:101C400053F900903DB194F83400012807D0A06BFF
:101C500040F000500DE0A06B40F0006009E000276C
:101C6000A763E16D06EB0B00884204D9A06B40F03E
:101C70000070A06395E0032084F834002068C762F8
:101C8000606C012800D076024FF40071206800F0EB
:101C90001DFEDFF890A1012140B12368C3F838A0F0
:101CA000A26B0243A26384F834107AE04FF0FF3055
:101CB00001904FEA4B200290902003900220CDE942
:101CC000040706918846B94601A9206800F080FD06
:101CD000BBF1010F06D9022020633146206800F0D5
:101CE00089FE05E0C4F830803146206800F09BFE94
:101CF00030B12268C2F838A0A16B0143A1634CE067
:101D0000029E1EE0406B000413D596B100272068A8
:101D100000F091FD05F8010B010A05F8011B010C0B
:101D200005F8021B000E361F7F1C05F8010C082F5A
:101D3000EDD3FFF7D9F80099411A109881421DD2CE
:101D4000E0B12068426B40F22A310A42DAD0416B9E
:101D5000C90509D5BBF1010F06D9616C032903D070
:101D600000F008FF0028C4D12068416B09071AD58C
:101D7000C0F838A0A06B40F0080051E02168C1F81D
:101D800038A0A06B40F00040A06384F83480C4F811
:101D90003090032007B0BDE8F08F84F83480C4F899
:101DA00030900120F6E7416B890705D5C0F838A0CF
:101DB000A06B40F0020033E0416B89061CD5C0F8EF
:101DC00038A0A06B40F020002AE000BF00F033FDF7
:101DD00005F8010B010A05F8011B010C05F8021BAF
:101DE000000E05F8010C361FFFF77EF80099411A26
:101DF000109881420ED268B12068416B890201D5EA
:101E0000002EE3D1216840F23A50886384F8348090
:101E10000020BFE72168C1F838A0A06B40F0004067
:101E2000A063BAE7FF0540002DE9FF4F8DB01646CD
:101E30000D460446FFF758F80B903DB194F8340076
:101E4000012807D0A06B40F000500DE0A06B40F0DF
:101E5000006009E00027A7631098E16D30448842D4
:101E600004D9A06B40F00070A0638BE0032084F8DD
:101E700034002068C762606C012800D076024FF4FD
:101E80000071206800F022FDDFF864B1012140B14B
:101E90002368C3F838B0A26B0243A26384F83410FD
:101EA00070E04FF0FF300390109889464002049094
:101EB0009020CDE90507CDE90771BA4603A920684E
:101EC00000F086FC1098012806D9202020633146B6
:101ED000206800F069FE05E010202063314620688C
:101EE00000F07BFE5FEA000806D02168C1F838B038
:101EF000A06B40EA080071E0049E27E0406B4004BC
:101F00001CD5DEB15FF0000715F8010B009015F845
:101F1000011B361F40EA0120009015F8021B40EA21
:101F20000140009015F8011C40EA016000906946EC
:101F3000206800F093FC7F1C082FE5D3FEF7D4FF48
:101F40000B99411A1A98814220D2F8B12068416B4E
:101F500040F21A321142D1D0416BC90523D51099F4
:101F6000012920D9616C03291DD000F003FED0B1F6
:101F70002268C2F838B0A16B0143A16384F83490A1
:101F8000C4F830A0012011B0BDE8F08F2168C1F87D
:101F900038B0A06B40EA0800A06384F83490C4F81D
:101FA00030A00320EFE72068416B090705D5C0F892
:101FB00038B0A06B40F0080010E0416B890705D5F0
:101FC000C0F838B0A06B40F0020007E0416BC906D2
:101FD00006D5C0F838B0A06B40F01000A063CDE784
:101FE00040F23A51816384F834900020CBE700003E
:101FF000FF05400070B5040004D094F8510000259E
:1020000010B106E0012070BD84F85050204600F069
:1020100035F8022084F851002068016821F0400161
:102020000160D4E901010843D4E9031211430843D4
:1020300061690843218B01F400710843E169084399
:10204000216A0843A16A084321680860A069042145
:1020500001EA104021684860A06AB0F5005F02D133
:102060002168E06A08612068C16921F40061C161EA
:102070006565012084F85100002070BD704710B5DF
:10208000401EB0F1807F01D3012010BD4FF0E0244D
:1020900060610F21601701F0BBFB0020A0610720E9
:1020A0002061002010BD2DE9F041044690F83C006D
:1020B0000D4601283BD0012684F83C60022084F8BC
:1020C0003D009AB3042A44D02068082A53D0D5E9A9
:1020D0000027E968036A23F480530362D0F81CC028
:1020E000036A2CF4407C4CEA07274FF6FF7C27F468
:1020F00070470CEA01313943770323F4005307EAB0
:1021000002321A43C16102622068C16921F4406150
:10211000C1612068C169AA6841EA0221C16184F8ED
:102120003D60002084F83C00BDE8F08101E0022021
:10213000FAE7D5E90012EB68206801F047F920685A
:10214000816921F00C01816120688169AA681143CD
:102150000FE0D5E90012EB68206801F06DF9206806
:10216000816921F44061816120688169AA6841EA3E
:1021700002218161D3E7D5E9002C2F7B016A21F48C
:1021800080710162C169036A21F0030141EA0C0117
:1021900021F0F00C39074FF400774CEA116123F479
:1021A000007307EA02221A43C16102622068C16912
:1021B00021F00C01C1612068C169AA681143ADE733
:1021C00010B5040003D094F83D0010B107E00120E1
:1021D00010BD002084F83C00204600F00CF80220DE
:1021E00084F83D00211D206801F052F8012084F898
:1021F0003D00002010BD704710B50268044631B1A3
:10220000042908D008291AD00C2908D11BE0D0686D
:1022100040F0020002E0D06840F00400D0600122EB
:10222000206801F07BF82068816801F00701062929
:1022300003D0016841F001010160002010BDD068A9
:1022400040F00800EAE7D06840F01000E6E70246F8
:10225000002041B1042909D008290AD00C2901D154
:102260001068006C70471068406B70471068806B96
:1022700070471068C06B704710B50446006841692C
:1022800094F83920C1F3C011212A0BD151B1416911
:1022900021F080014161206B08B1FEF77BFC2046F4
:1022A00001F03BF92068416994F83A20C1F38011AC
:1022B000222A0BD151B1416921F040014161606B8B
:1022C00008B1FEF767FC204601F019F9002010BDA7
:1022D000704770B5040004D094F83900002510B19F
:1022E00006E0012070BD84F83850204600F022F846
:1022F000242084F839002068C16821F40051C160AD
:10230000204601F013F92068016921F49041016130
:102310002068416921F02A0141612068C16841F4C7
:102320000051C160E563202084F8390084F83A0048
:10233000002070BD70470000F8B5044690F83A00E0
:1023400020283CD1C1B3BAB394F83800012836D064
:10235000012084F83800A162A2850025E5632220CF
:1023600084F83A00636B17489862636B1648D8622A
:10237000636B16481863606B134645630846666BCB
:10238000216802463046091DFEF766FC2068016898
:102390004168009184F83850C16841F48071C1608F
:1023A0002068416941F0010141612068416941F0C3
:1023B000400141610020F8BDFFE70120FBE702205A
:1023C000F9E70000B9340008F53400086F3400085C
:1023D000704770472DE9F843044690F839001F46CE
:1023E00016460D46202850D1A5B19EB194F838006C
:1023F00001284AD0012084F838004FF00008C4F8C2
:102400003C80212084F83900FEF76EFDA6848146C9
:10241000E68426E00120BDE8F883E08C401EE084DD
:10242000A0684B46B0F5805F4FF000024FF080018E
:102430002046009703D001F0D5F8E8B90DE001F08F
:10244000D1F8C8B928882168C0F30800486020691D
:1024500008B16D1C05E0AD1C03E0216815F8010B07
:102460004860E08C0028D8D14B460022402120460D
:10247000009701F0B7F808B10320CCE7202084F8DA
:10248000390084F838800020C5E70220C3E7FEE762
:10249000F0B50F4885B0816941F00801816180691C
:1024A000112400F0080004904020002503268DE848
:1024B0007100084F69463846FEF714FC80208DE80D
:1024C000710069463846FEF70DFC05B0F0BD00000E
:1024D00000100240000C0140104800B5816985B031
:1024E00041F0100181618069802100F010000490AA
:1024F0000020CDE900100321CDE90201694608481A
:10250000FEF7F0FB00F018FF064A05B00A21A2F121
:1025100010005DF804EB00F070B8000000100240FD
:1025200000100140D00000202DE9FF410024104D93
:1025300001274FF0020800BF05EBC4067068FEF7E4
:10254000B1FA019755F83400CDF80C800090694637
:102550007068FEF7C7FB35F83400012281B270685D
:10256000FEF7BCFC641CE4B2032CE5D3BDE8FF819C
:1025700008000020FEE77047F0B4A0F53852E13AB9
:1025800040F2CF731A499A4202D201220A7002E045
:102590000A78002A2AD0174A4C78A0F6350602EBB2
:1025A000D4031D786D081D70C72E07D340F2E7369F
:1025B000C938B04202D245F080001870641CE0B205
:1025C0004870202812D10020487051781078C943F3
:1025D000C9B288420AD1D0789178C043C0B2814252
:1025E00004D1F0BC0348703000F00DB8F0BC704767
:1025F00004000020500000207047C0E900120021B4
:102600008160C160704730B5C36804685A1CB2FB72
:10261000F4F504FB15228468944201D1032030BDF7
:102620004468E154C260002030BDF0B515460E4646
:102630000746002406E0315D3846FFF7E4FF032833
:1026400002D0641CAC42F6D32046F0BD70B50446FF
:10265000FEF74AFC05464FF47A7606E0FEF744FCA6
:10266000401BB04201D9032070BD2068406880063D
:10267000F4D52068416841F010014160002070BD30
:1026800070B504460068416821F010014160FEF712
:102690002BFC05464FF47A7607E000BFFEF724FCDA
:1026A000401BB04201D9032070BD206840688006FD
:1026B000F4D5002070BD0000054800684168C907D6
:1026C00005D06FF001014160024901200870704798
:1026D0002C06002030000020F0B5394C91B0E069A4
:1026E00040F00060E061E06900F000600090E069A7
:1026F00040F08050E061E06900F080500090FEF70B
:102700006BFC0126A015CDE90A602F4D2D483146FE
:10271000286047F6FF7068602846FEF7BFFF45F265
:102720005007B8423CD0E06940F00060E061E069E9
:1027300000F000601090E06940F08050E061E069D6
:1027400000F080501090FEF747FC0420009000201D
:10275000079003966846FEF711FE1C4806600AA81B
:10276000FEF7AAFC2846FEF7A9FF1648001D0168DF
:1027700041F010010160134A46F2E851183211602D
:10278000121D46F641111160016821F0100101602F
:1027900001688906FCD53A4601210B48FEF786FF01
:1027A0002868016841F001010160012211460320FF
:1027B000FEF7E0FB0320FEF7D0FB11B0F0BD0000F8
:1027C00000100240002800402C0600203C04424239
:1027D0000A6842624A688262D1E902231A43D1E957
:1027E00004310B43C16A1A4321F0F7011143C1625E
:1027F00000207047006800F00300704708444069FB
:10280000704770B50DF1100C11439CE87000234324
:10281000194329434268314347F6FF639A430A4309
:102820004260002070BD10B5032101600220FEF758
:102830004BFA002010BDD0F8800070470A68826013
:10284000D1E901231A43D1E903310B43C1681A438B
:102850006FF30B011143C160002070470968C0F895
:1028600080100020704710B586B004463720CDE9AF
:10287000001040200290002003904FF480600490EC
:1028800069462046FFF7DAFF41F2883237212046B9
:1028900000F0BCF906B010BD10B504460A4886B079
:1028A00001432920CDE90010402002900020039030
:1028B0004FF48060049069462046FFF7BFFF204632
:1028C00000F05CFA06B010BD0000108010B586B0B4
:1028D00004461020CDE90010402002900020039013
:1028E0004FF48060049069462046FFF7A7FF41F24D
:1028F00088321021204600F089F906B010BD10B5CD
:1029000086B004460620CDE9001040200290002049
:1029100003904FF48060049069462046FFF78EFFD5
:1029200041F288320621204600F070F906B010BD51
:1029300030B585B000240546009401944FF48060C2
:102940000294CDE9034069462846FFF777FF0B481C
:102950004FF4FA510068B0FBF1F041F2883148437E
:10296000401E03D24FF0004005B030BD696B090630
:10297000F6D5C520A8632046F6E700000000002039
:1029800070B585B004464FF4D570009001A90820B9
:102990004025002681E86100C00104906946204678
:1029A000FFF74CFF12484FF4FA510068B0FBF1F00A
:1029B00041F288314843401E03D24FF0004005B039
:1029C00070BD616B11F0450FF5D00905F3D4606B54
:1029D000400701D5042003E0606BC00702D001204E
:1029E000A063ECE7606B400600D5A5633046E6E7E0
:1029F0000000002010B586B004461220CDE900107A
:102A000040200290002003904FF4806004906946BB
:102A10002046FFF713FF41F288321221204600F0D2
:102A2000F5F806B010BD10B586B004461120CDE90A
:102A3000001040200290002003904FF4806004902A
:102A400069462046FFF7FAFE41F2883211212046FE
:102A500000F0DCF806B010BD10B586B004460720C3
:102A6000CDE9002040200290002003904FF48060C8
:102A7000049069462046FFF7E1FE41F288320721C3
:102A8000204600F0C3F806B010BD10B586B004466D
:102A900000210220CDE90010C020CDE902014FF451
:102AA0008060049069462046FFF7C8FE204600F08B
:102AB0003DF906B010BD10B586B004460920CDE939
:102AC0000010C0200290002003904FF4806004901A
:102AD00069462046FFF7B2FE204600F027F906B00F
:102AE00010BD10B586B0044600213320CDE900109A
:102AF0004020CDE902010001049069462046FFF71D
:102B00009DFE41F288323321204600F07FF806B066
:102B100010BD10B586B004460D20CDE90010402050
:102B20000290002003904FF4806004906946204694
:102B3000FFF784FE41F288320D21204600F066F84E
:102B400006B010BD30B585B00C4605460021032007
:102B5000CDE900104020CDE9020100010490694652
:102B60002846FFF76BFE22460321284600F028F98D
:102B700005B030BD10B586B0044600210C20CDE96B
:102B800000104020CDE90201000104906946204672
:102B9000FFF754FE034A0C21204600F037F806B038
:102BA00010BD000000E1F50510B586B004461920FF
:102BB000CDE9001040200290002003904FF4806087
:102BC000049069462046FFF739FE41F28832192108
:102BD000204600F01BF806B010BD10B586B00446C4
:102BE0001820CDE9001040200290002003904FF4FF
:102BF0008060049069462046FFF720FE41F288324B
:102C00001821204600F002F806B010BD454B10B563
:102C10001B684FF4FA54B3FBF4F353435B1E02D228
:102C20004FF0004010BD426B12F0450FF6D0120578
:102C3000F4D4426B520703D504218163084610BDCA
:102C4000426BD20702D00121816305E0C522826375
:102C50000269D2B28A4201D0012010BD0021FFF7E3
:102C6000CDFD3149084201D1002010BD002802DA13
:102C70004FF0007010BD410001D5402010BD810013
:102C800001D5802010BDC10002D54FF4807010BD69
:102C9000010102D54FF4007010BD410102D54FF47F
:102CA000806010BDC10102D54FF4006010BD01026B
:102CB00002D54FF4805010BD410202D54FF40050B0
:102CC00010BD810202D54FF4804010BDC10202D573
:102CD0004FF4004010BD410302D54FF4003010BD49
:102CE000810302D54FF4802010BDC10302D54FF4FB
:102CF000002010BD010402D54FF4801010BD410426
:102D000002D54FF4001010BD810402D54FF48000AD
:102D100010BD000702D54FF4000010BD4FF4803005
:102D200010BD00000000002008E0FFFD12494FF434
:102D3000FA520968B1FBF2F141F288325143491E5F
:102D400002D24FF000407047426B12F0450FF6D0B0
:102D50001205F4D4416B490703D504218163084669
:102D60007047416BC90703D0012181630846704752
:102D7000C521816300207047000000200F494FF4F7
:102D8000FA520968B1FBF2F141F288325143491E0F
:102D900002D24FF000407047426B12F0450FF6D060
:102DA0001205F4D4416B490703D504218163084619
:102DB0007047C5218163002070470000000000209B
:102DC00030B5204B4FF4FA541B68B3FBF4F341F2D7
:102DD000883463435B1E02D24FF0004030BD446B29
:102DE00014F0450FF6D02405F4D4436B5B0703D5EC
:102DF00004218163084630BD436BDB0702D001210B
:102E0000816303E00369DBB28B4201D0012030BD56
:102E1000C52181630021FFF7F1FC10F4604F04D05D
:102E2000410406D54FF4005030BD000C1080002046
:102E300030BD000402D54FF4805030BD4FF48030D7
:102E400030BD0000000000202DE9F04F89B00D4694
:102E50000446FEF749F80026834600960196374659
:102E600008212068FFF732FD002834D1B4F8500063
:102E700001042068FFF7F7FC00282CD1401E4FF01A
:102E80000808CDE9020830204FF00209CDE9040915
:102E90000120CDE9067002A92068FFF799FC20689F
:102EA000FFF71FFE002816D1EA4640F22A472068A5
:102EB000416B394212D1416B890204D5FFF7BBFC4B
:102EC0004AF82600761CFEF70FF8A0EB0B00401C1A
:102ED000EDD14FF0004009B0BDE8F08F416B09071C
:102EE00003D5C0F838800820F5E7416B890703D582
:102EF000C0F838900220EEE7416B890603D5202107
:102F000081630846E7E740F23A518163019800BACD
:102F10002860009800BA68600020DCE710B590B027
:102F200004460120ADF838002068FFF763FC002854
:102F300054D0606C032842D02068FFF7A6FD00281B
:102F40004AD100212068FFF759FC606704212068FE
:102F5000FFF754FCA06708212068FFF74FFCE067EB
:102F60000C212068FFF74AFCC4F88000606C03283D
:102F700025D00EA92068FFF7E5FD00282CD1606C54
:102F800003281CD0BDF83800206501042068FFF735
:102F900092FD002820D100212068FFF72FFC6066F9
:102FA00004212068FFF72AFCA06608212068FFF7AB
:102FB00025FCE0660C212068FFF720FC2067042137
:102FC0002068FFF71BFC000DE06403A92046FEF714
:102FD00085FC30B14FF0805010B010BD4FF08060D4
:102FE000FAE7B4F85000002302042068FFF734FD2C
:102FF0000028F1D104F1100007C88DE8070094E81B
:103000000F00FFF7FEFB0020E6E700002DE9F84F78
:103010000026044600963546B0460068FFF788FC57
:10302000002827D12068FFF7ABFC4FF0805B4FF002
:1030300001094FF6FF7748B1A6642068FFF778FCD6
:10304000002817D1A06C012802D020E0C4F84890D5
:1030500000212068FFF707FC58B918E0002120681C
:10306000FFF701FC002805D151462068FFF714FC4A
:1030700010B15846BDE8F88F00212068FFF7BEFB6D
:1030800005464FEAD0780098401C009002E0DFF837
:103090002CA00098B84202D2B8F1000FDED0009800
:1030A000B84202D34FF08070E4E7680002D5C4F85C
:1030B000449000E066640020DCE70000000010C1DE
:1030C000F0B51D4885B0816941F0040181618069D6
:1030D000022600F0040004902020CDE90006174FDE
:1030E0000024032569463846CDE90245FDF7FAFD7F
:1030F0004020CDE9000469463846CDE90245FDF798
:10310000F1FD8020CDE9000669463846CDE902454B
:10311000FDF7E8FD01200190102000906946384637
:10312000CDE90245FDF7DEFD012210213846FDF70D
:10313000D5FE05B0F0BD00000010024000080140BF
:1031400008B5FFF7BDFF0F48816941F480518161E7
:1031500080690D4900F4805000900C484FF40072D3
:1031600001604FF48271416000218160C160416162
:10317000826101611822C0E907214162BDE808406F
:10318000FEF738BF0010024000300140D405002097
:103190007047000010B5064C206800B18047A06859
:1031A000E168401C41F10001A060E16010BD000039
:1031B0002000002030B58FB028216846FDF799F82F
:1031C00014210AA8FDF795F801210804CDE90010A3
:1031D0000024029402250491CDE907504FF4E01039
:1031E00009906846FEF7CAF800B1FEE70F20CDE966
:1031F0000A054FF48060CDE90C4002210AA80E9424
:10320000FDF7D0FF002800D0FEE70FB030BD000072
:103210000D48016841F00101016041680B4A11400D
:10322000416001680A4A11400160016821F480216F
:103230000160416821F4FE0141604FF41F0181608B
:103240000449C00308607047001002400000FFF806
:10325000FFFFF6FE08ED00E010B50B4C206800699A
:10326000400710D504212046FEF7F1FF074980B240
:1032700048802268002151622268491F1161BDE81F
:103280001040FFF779B910BD700000200400002045
:10329000F0B502681C4B1D4D1D4E1E4F1E4C4FF0CD
:1032A000804C984209D0A04207D0604505D0A84282
:1032B00003D0B04201D0B84204D122F0700E4A6867
:1032C00042EA0E02984209D0A04207D0604505D0DC
:1032D000A84203D0B04201D0B84203D122F44075D5
:1032E000CA682A434D6922F080022A4302608A6834
:1032F000C2620A688262984201D0A04201D1096983
:10330000016301214161F0BD002C01400004004037
:1033100000080040000C00400034014010B501F0EE
:103320001F030121046A99408C430462016A9A4098
:103330001143016210BD000038B52048C16941F059
:103340000201C161C16901F002010091816941F08E
:1033500001018161806900F0010000901848416816
:1033600021F4406141F0E06141F440614160164860
:103370001449002401604721C0E901144FF6FE7191
:10338000C160FEF71DFF1048022140300422016099
:103390000121C460C0E9011401464038FEF783FEF4
:1033A000012211461D20FDF7E5FD1D20FDF7D5FD8D
:1033B000BDE8384004210448FEF71EBF001002405B
:1033C00000000140000400407000002070B5046A55
:1033D00024F0010404628469056A124EB0420ED0E2
:1033E000114EB0420BD0B0F1804F08D00F4EB0421A
:1033F00005D00F4EB04202D00E4EB04203D124F0A1
:103400000304144301E044F001041A0724F0F0041B
:1034100044EA126225F00A0301F00A0119438261AD
:10342000016270BD002C01400034014000040040E6
:1034300000080040000C004030B5046A24F010047D
:1034400004628469056A24F4407444EA022222F486
:1034500070444FF6FF7202EA03322243A02425F0A3
:10346000A00304EA011119438261016230BD70B505
:10347000446A2068406994F83910C0F3C0100025F0
:10348000212904D118B1E584204600F046F82068CF
:10349000406994F83A10C0F38010222904D118B181
:1034A000E585204600F02BF8E06B40F01000E0636B
:1034B0002046FEF70DFF70BD10B50146406A096851
:1034C0000968890613D40021C1850168CA6822F4FD
:1034D0008072CA6001684A6922F001024A6101688B
:1034E0004A6922F040024A61202180F83A10FEF732
:1034F0006FFF10BD10B5406AFEF76BFF10BD01688D
:10350000CA6822F49072CA6001684A6922F0010216
:103510004A61202180F83A1070470168CA6822F099
:10352000C002CA60202180F8391070472DE9F041AF
:10353000044600680169E26821F4405111430161C9
:103540002169A0680843616908432168CA6841F29B
:103550000C639A430243CA6020684169A26921F45E
:103560004071114341611E4920686425322688421A
:1035700002D1FDF7BDFE01E0FDF7AAFE00EBC001A0
:1035800001EB001160686FF018078000B1FBF0F2EA
:10359000B2FBF5F2B1FBF0F37A4303EB8202B1FB2D
:1035A000F0F306EB0212B2FBF5F2B3FBF5F302F017
:1035B000F00202EB0312B1FBF0F3B1FBF0F0B0FB51
:1035C000F5F0784303EB800006EB0010B0FBF5F05C
:1035D000216800F00F0010448860BDE8F081000011
:1035E000003801402DE9F041984617460E46044642
:1035F000069D1DE0681C1BD02DB1FDF775FCA0EBEE
:103600000800A84214D92068C16821F4D071C160B3
:103610002068416921F001014161202084F83900CE
:1036200084F83A00002084F838000320BDE8F081D7
:103630002068006836EA000004D00020B842D9D0E3
:103640000020F3E70120F9E738B50F4C2068016846
:10365000C90618D50168406800902046FEF70CFEA8
:10366000206C4068D4F89420C0F5806081B204F1E9
:103670009800044690472146BDE838404FF48062E8
:103680000148FEF759BE38BDDC0000200A4601465D
:103690000148FEF7CABF00007405002010B50446BB
:1036A00000F066F800F042F82046BDE8104000F057
:1036B00001B8000038B51A4C1849C4F894101949DB
:1036C0008A6942F480428A61896901F480410091EB
:1036D0001549C4E900100020E060A06020610C20C2
:1036E00060612046FEF7F5FD2068C16841F01001D9
:1036F000C160012211462520FDF73CFC2520FDF785
:103700002CFC04F1400064666063BDE8384000F1C1
:1037100058014FF480624038FEF70EBE8D36000827
:10372000DC00002000100240003801400D4882B04B
:10373000416941F00101416140690B4900F001001C
:1037400000900A488022016400214164C0E91212FD
:103750000165416581654FF44051C165403002B05B
:10376000FDF73CBA0010024058000240DC00002087
:103770007FB5144C12480115C4F88C00A4F89010C1
:1037800044F8840F4115A180FDF78CF902200190C7
:10379000A08803250395009069462068FDF7A2FAEA
:1037A000A068FDF77FF900200190A089009001201A
:1037B000CDE902056946A068FDF794FA7FBD0000D7
:1037C00000080140DC000020FEE7000010B50748BB
:1037D000FEF755FC0322141F11462046FDF7CAFBD5
:1037E0002046BDE81040FDF7B8BB000040190100BD
:1037F0000FB4054B10B503A9044A029800F028F84D
:1038000010BC5DF814FB0000F55500084C000020CA
:103810000907090E002804DB00F1E02080F80014FD
:10382000704700F00F0000F1E02080F8141D704791
:1038300002E008C8121F08C1002AFAD17047704779
:10384000002001E001C1121F002AFBD170470000D7
:103850002DE9FF4F8DB09B460F460446002606E03B
:1038600025280BD05A460F999047641C761C207867
:103870000028F5D111B03046BDE8F08F0025A846EC
:103880000122984900E0054314F8013F203B02FA69
:1038900003F00842F7D120782E2817D114F8010F31
:1038A00045F004052A280ED06FF02F022078A0F1F1
:1038B000300109290AD808EB880102EB410100EB2D
:1038C0000108641CF2E757F8048B641C20786C280C
:1038D0000DD004DC4C2812D06A2811D104E07428E1
:1038E0000DD07A280CD10AE045F4001507E0617884
:1038F00045F48015814202D1641C05F58015641CD5
:103900002278692A45D008DC002AB3D0582A69D029
:10391000632A10D0642A08D13BE0702A67D0732A4A
:1039200013D0752A5CD0782A5CD010465A460F997D
:103930009047761CD3E017F8040B8DF800000020A8
:103940008DF80100E946012003E057F8049B4FF091
:10395000FF3069074FF0000501D40AE06D1C4545B2
:103960000DDA8542FADB19F805100029F6D106E0D8
:103970006D1C8542FCDB19F805100029F8D12E4496
:1039800004E019F8010B5A460F9990476D1EF8D2C2
:10399000A5E00A200021CDE90801C5F30250022864
:1039A0000DD001CFC117031E71F100030DDA4FF0E6
:1039B000000CD0EB0C006CEB01012D2308E0FF1D87
:1039C00027F00707F7E80201EDE72B0504D52B23C5
:1039D0008DF8283001233BE0EB0739D02023F7E7AF
:1039E0000A2000E010200021CDE9080107E01020A6
:1039F000002145F00405CDE908014FF00808C5F3A2
:103A0000025002280FD001CF00214FF0000A2B07EF
:103A10001FD5702A0DD0DDE908C38CF0100C5CEACC
:103A2000030C0CD015E0FF1D27F00707F7E8020193
:103A3000EBE740228DF828204FF0010A0BE050EA16
:103A4000010306D030238DF828308DF82920022379
:103A50009A46582A04D024A20DF120090B9209E0BD
:103A600026A2F9E7DDE90823FCF77EFB0B9B9B5CB4
:103A700009F8013D50EA0102F4D1ADEB0900203014
:103A80000890680701D44FF001080899884502DDC5
:103A9000A8EB010000E000208046002506E00AA80F
:103AA0005A46405D0F9990476D1C761C5545F6DBD4
:103AB00004E030205A460F999047761CB8F1000177
:103AC000A8F10108F5DC05E019F8010B5A460F9939
:103AD0009047761C0899481E08900029F4DC641C65
:103AE000C5E600000928010030313233343536375D
:103AF000383961626364656600000000303132333A
:103B000034353637383941424344454600000000D9
:103B100070B5044600202071401E6063204602F00C
:103B20007BF908B1042070BD04F2362002F018F8C9
:103B3000054694F838004AF65526EB2803D0E928C4
:103B400001D0E8283FD1B54207D1082221A104F1D4
:103B50008A00FCF7EAFB0028E5D004F1430001F0FD
:103B6000FFFF94F84510421E10422CD1B0F5007FA3
:103B700029D3B0F5805F26D829B3481E014222D14F
:103B800004F1460001F0ECFFE8B194F84800401E53
:103B9000012818D804F1490001F0E2FF98B104F1BE
:103BA0004B0001F0DDFF802806D204F1580001F03F
:103BB000CCFFB0F5803F06D304F14E0001F0D0FFFA
:103BC00008B1002070BDB54201D1022070BD0320B4
:103BD00070BD000046415433322020200000000018
:103BE0000268806A938952895343B1FBF3F1001D47
:103BF00004C81AB1914203D3891AF8E7002070472C
:103C0000006808447047C269891E921E8A4201D822
:103C100000207047026B408900FB012070470000C4
:103C20002DE9F05F82460C4601F11A0001F098FF81
:103C300078BB2078012700F03F00401E00EB800198
:103C4000DFF8589001EBC00500264FF6FF7B00BF60
:103C500019F80600204401F083FF80466FB1FF2D64
:103C600017D801F045FC07463AF815006D1C01F025
:103C70003FFC87420DD1474601E0D84509D1761C6B
:103C80000D2EE5D32078400606D52FB13AF8150061
:103C900010B10020BDE8F09F0120FBE7EC630008B5
:103CA0002DE9F04106680F00804606D001F0EAFDDC
:103CB000022809D20120BDE8F081746914B1F069CD
:103CC000A04207D8012405E0411CF4D0F1698142EB
:103CD000F1D83C46B0690028EDD0BC4216D1F0695D
:103CE000651CA84200D802252946404601F0CAFDBD
:103CF0000128E0D0411CDED038B17069022805D31C
:103D0000F169814202D9044600E0A5B92546F0696F
:103D10006D1CA84202D80225022C0AD3294640462F
:103D200001F0B0FD38B10128C5D0411CC3D0A54277
:103D3000EDD10020BFE74FF0FF3422462946304640
:103D400002F083F830B95FB12A463946304602F0B6
:103D50007CF828B1012800D0012425462846AAE78E
:103D60007561D6E90601891E884201D8401EB061FE
:103D7000707940F001007071F0E700002DE9FC5F00
:103D8000824608680190DAF800000E4600250769AF
:103D90004FF4803801A802F0E8FA411C3BD04045BE
:103DA00003D3010C27F815106D1C84B2202C1CD3F2
:103DB0002F2C10D05C2C0ED0802C04D2214679A060
:103DC000FCF7A2FA38BBFF2D25D227F815406D1C51
:103DD000E0E7401C0190019801782F29F9D05C2977
:103DE000F7D00024C8B2202800D204240198306003
:103DF00009E000BF07EB450030F8020C202801D095
:103E00002E2802D16D1E002DF4D1002027F81500B8
:103E10000DB1002603E00620BDE8FC9F761C37F8B4
:103E200016002028FAD016B938882E2803D144F07D
:103E3000030400E06D1E2DB107EB450030F8020CC5
:103E40002E28F7D120220B210AF12000FCF74AFA94
:103E50004FF000084FF0080BCDF8008037F816003F
:103E600006F101065FEA000924D0B9F1200F04D061
:103E7000B9F12E0F04D1AE4202D044F00304EDE7B5
:103E80000098584501D2AE4219D1BBF10B0F0FD0AB
:103E9000AE4201D044F003040CD84FF0080000906B
:103EA0004FEA88602E464FF00B0B4FEA1068D5E7BB
:103EB00044F003049AF82000E5284FD051E048462A
:103EC000B9F1800F0DD344F0020440F2B51101F0B6
:103ED000F1FA8146000604D5354909F07F0011F852
:103EE00000904846B9F1FF0F13D90099ABF10100DA
:103EF000814204D344F00304CDF800B0AEE700984B
:103F00004FEA1922504480F820200098401C00906D
:103F10001BE0B9F1000F04D0014626A0FCF7F4F92C
:103F200020B14FF05F0944F003040EE0A9F1410015
:103F3000192801D848F00208A9F16100192804D80D
:103F4000413048F001081FFA80F9009A0AEB02019B
:103F500081F820900098401C00907FE705218AF8A6
:103F60002010BBF1080F03D14FEA88604FEA1068B8
:103F7000C8F38100032803D06FEA0800800701D14D
:103F800044F00204A00709D45FEAC87001D044F0ED
:103F900010045FEA487001D544F008048AF82B4009
:103FA000002039E72A3A3C3E7C223F7F0000000097
:103FB000F96300082B2C3B3D5B5D00002DE9FF4FB2
:103FC00081B09B466A460121019800F0CDFA002895
:103FD0007DD108264FF03F09F101009F03E07000FA
:103FE00010F0FF0606D006FB09F0B7FBF0F08842A0
:103FF000F5D806B9FF264FF480515846FCF779F9F9
:104000000BF5DF754FF0000A4C465DE0029951F860
:104010002A80B8F1640F09D801D1384605E04FF085
:104020006400B7FBF0F000FB08F0804604EB0800EA
:10403000B84201D8A04201D2A7EB0408B8F1000FA2
:1040400044D0214605F1080002F010F9414605F17F
:104050000C0002F00BF9B4FBF9F2B2FBF6F3039893
:104060002871B4FBF9FC09FB06F1B4FBF1F006FB87
:10407000132209FB1C4C6A70C02303EA90020CF166
:10408000010C42EA0C02AA70E87004EB0800441E1E
:10409000B4FBF9FCBCFBF6F2B4FBF9F8B4FBF1F1AC
:1040A00006FB12CC09FB184203EA9103521C85F867
:1040B00005C01343AB71E9710AF1010A10350446DA
:1040C000BAF1040F02D20CB1BC429FD300E00DE064
:1040D0004AF655210BF5FF7002F0D0F801230022BB
:1040E0005946019800F071FA002800D0012005B06F
:1040F000BDE8F08F002800D0002070472DE9F04186
:104100000F4604460021066800F0DCF988B9002556
:104110003046A16901F080FE58B9E1690978E529C6
:104120000CD059B100250121204600F096F8002856
:10413000EED0042800D10720BDE8F0816D1CBD42FF
:10414000F1D1F9E72DE9F0410C46054602F0EAF815
:10415000F8B921462846FFF756FD0646686305F183
:1041600038004FF480510446FCF7C3F8A0460127FD
:10417000002400E03C446889A04207D932196878DD
:104180003B46414600F021FA0028F3D06889A0425E
:1041900002D00120BDE8F0810020FBE72DE9F047C7
:1041A00005460021D0F8009000F08CF9002852D18B
:1041B000FF24471EA046EF624846A96901F02CFE85
:1041C000060047D1E969087850B1CA7AE52802F0BB
:1041D0003F02AA7136D0130704D50F2A32D105E069
:1041E000042637E00F2A01D0E4B120E095F82B2017
:1041F000520629D4420606D591F80D8000F0BF0082
:104200002A690446EA62A04209D14A7B424506D1A6
:10421000D9F81000FFF704FD08B1641E00E0FF2488
:10422000E4B211E0084602F02DF8404512D095F8AE
:104230002B00C00706D10B2205F12001E869FCF72D
:1042400074F838B1FF24EF620021284600F005F829
:104250000600B1D03046BDE8F0872DE9F047076988
:1042600006682037894604464FF00008B7F5001F5E
:1042700039D2A06930B1B189B7FBF1F201FB1271FB
:1042800019B13DE00420BDE8F087401CA0616169E0
:1042900029B3B0897289B7FBF0F0521E10422FD1BA
:1042A000204601F0EFFA0546012821D9681C14D0F8
:1042B000F069A8421ED8B9F1000F14D020466169F8
:1042C000FFF7EEFC050011D0012D11D0681C04D0C1
:1042D00029463046FFF736FF60B10120D3E7308929
:1042E000B0EB571F0CD8C4F81880CBE70720CAE7FB
:1042F0000220C8E7294630466561FFF784FCA061CB
:104300002761B089B7FBF0F100FB11703044383001
:10431000E0610020B7E700002DE9F04F0446D0F837
:10432000009090F82B0087B010F0A00F03D006206B
:1043300007B0BDE8F08F0025D9F8100000E06D1C33
:1043400030F815100029FAD104F1200004F12006FC
:1043500007C88DE807009DF80B00C00719D0402062
:1043600084F82B0001273B4669463046D9F81020D7
:1043700001F03AFA2046FFF711FF10B97F1C642FB5
:10438000F1D3642F0FD00428D2D19DF80B0084F80C
:104390002B009DF80B00800707D50D200C35B5FBD1
:1043A000F0F77F1C02E00720C2E7012739462046CC
:1043B000FFF7A4FE05007DD17F1E049760D0216920
:1043C000784201EB4011204600F07CF8050075D1E1
:1043D000304601F057FF4FF6FF7B06904846A16933
:1043E00001F01AFD050069D1D9F810000590049874
:1043F000D4F81C80C0B20390069988F80D100F21E4
:1044000088F80B10002188F80C1008F11A0001F050
:1044100035FF0398DFF8A8A0401E00EB800101EBF8
:10442000C006002701E05D4503D0059830F816501E
:10443000761C1AF8071001EB0800294601F01EFF50
:1044400005B95D467F1C0D2FEDD35D4505D0059860
:1044500030F8160008B1039803E0039840F04000DC
:10446000039088F80000012189F8041000212046FB
:10447000FFF7F3FE050021D10498401E0490ADD152
:104480004846A16901F0C8FC050017D154F81C0F7B
:104490002021FBF72EFF206861680160A168416060
:1044A000A1890181A17B8172E07B216800F0180065
:1044B000087300E002E0012089F80400284637E78D
:1044C000EC6300082DE9F04104680F460646B1F59B
:1044D000001F3CD2F8063AD13761B56825B920787B
:1044E000032806D3E56A25B16089A18900FB01F89C
:1044F00012E02089B0EB571F29D9E06A12E030465C
:1045000001F0C0F90546401C1FD0022D1FD3E06901
:10451000A8421CD9A7EB080747452946EFD22046F9
:10452000FFF771FBC6E9055088B1A189B7FBF1F12E
:104530000844B061A089B7FBF0F100FB1170204482
:104540003830F0610020BDE8F0810120FBE7022057
:10455000F9E710B508B1012010BD01F07DFD01F0B3
:10456000CFFD002010BD000010B5144600280BD16F
:1045700059B10D4B4FF400720129986D0BD00229EF
:1045800005D0032905D0042010BD002010BD2260F5
:10459000FBE72080F9E7596D0023A1FB0001FBF741
:1045A00014FE2060F1E70000A426002070B5144638
:1045B0000D4608B1042070BD1A462146284601F078
:1045C0006BFD002070BD0020704770B514460D468D
:1045D00008B1042070BD1A462146284601F076FD38
:1045E000002070BD38B5044600F02BFE002807D12E
:1045F0006946204601F0D3FE002801D10021216048
:1046000038BD2DE9FC4100259046074604464E1E64
:104610000FE001AB01226946404600F057FD0198CA
:10462000012808D19DF800006D1C04F8010B0A2830
:1046300001D0B542EDDB0020207015B13846BDE851
:10464000FC810020FBE700002DE9FF4F97B0994661
:1046500090460D4617A801F0A7F9002803DA0B20B1
:104660001BB0BDE8F08FF949002451F8201001B1CA
:104670000C70C0B20B90FFF76CFFC10701D0032094
:10468000EEE7400701D50A20EAE705B9F04D4FF4FF
:1046900000466868119030B911AA03210B98FFF702
:1046A00063FF119820B1B04202D8411E084201D0E8
:1046B000012011900CAA02210B98FFF755FF00284A
:1046C00079D1BDF83000A0F50071B1F5606F72D8F6
:1046D000411E0842F4D1297801F00F011591697843
:1046E0004A1E012A00D901218B46A9684A1EB242FE
:1046F00005D24209B1FBF2F302FB13120AB14FF4E7
:1047000000711691E968B1F1807F02D84A1E11420A
:1047100000D00021B1FBF0F7B9FBF0F05FEA00092F
:104720000DD05FEA08050AD000200D9002900DAA76
:1047300001210B98FFF718FF0028C1D101E01120DB
:104740008EE71598000706D40D983F2803D93F211E
:104750003F3802910D900D9880287DD3802F00D98D
:1047600080271598800715984FEAC07002D510B9B8
:10477000032601E078B1022601F0F8F801460D9811
:104780003C46864608444FF6F57340F6F5720F90A6
:10479000032E06D002E0132062E73C4654B33BE010
:1047A0003C4694B9DFF8A8C200204FEA5E410124DC
:1047B000ACF10E0C02E0A5E16400401C3CF8108056
:1047C000B8F1000F01D08845F6D9BEFBF4F0BDF872
:1047D00030104FF0200A01EB800C0CF1070CBCFBF1
:1047E000F1F1059100210A91984235D99949884201
:1047F00032D82EE0DFF858C200204FEA1E310124E3
:10480000ACF11C0C01E06400401C3CF81080B8F1D5
:10481000000F01D08845F6D9BEFBF4F0904203D9D1
:10482000042101EB400106E0012600EB40000321DA
:10483000401C01EB5001BDF830004FF0010A01446B
:10484000491EB1FBF0F1059116994901B1FBF0F059
:104850000A900298504400E064E00A990E9000EB40
:10486000010C059800FB0BC1119801EB000C401ED8
:10487000ACF1010C2CEA000CACEB0100032E2BD0A8
:10488000B0FBFBF80BFB180CBCF1000F08D0DDF8F7
:1048900038C00AF1010A0CF1010C401ECDF838C0F5
:1048A000B0FBFBFC05986044CDF81400029801EBC6
:1048B0000411091A714535D80598AEEB0A0C00FBB6
:1048C0001BC10A98081AB0FBF4F8032E0AD0022E76
:1048D0000FD0012E24D027E0DDF838C08244604498
:1048E0000E90E3E798451FD8E7B967087FF458AF03
:1048F00018E098450FD92FB94020B0EB440F01D3F1
:1049000067004AE71598800707D5032648E7670040
:10491000802FF6D906E0904506D8002FF7D001E0A9
:10492000904501D90E209BE6BDF830102846FBF7D4
:10493000E0FC49A00168296041686960008928811C
:104940003020A872BDF8301005F10B0001F096FC84
:104950006C731FFA8AF105F10E0001F08FFC85F8E7
:1049600010B0032E0FD0169881B205F1110001F09E
:1049700085FC0D99B1F5803F07D289B205F113008E
:1049800001F07CFC05E00020EEE705F1200001F0DD
:104990006DFCF82068753F2105F1180001F06EFCF0
:1049A000FF2105F11A0001F069FC05F11C000299D4
:1049B00001F05CFC80270F994FF0290A032E24D0C8
:1049C00005F1270001F052FC059881B205F11600AF
:1049D00001F054FC85F8247085F826A0132221A14B
:1049E00005F12B00FBF76CFC4AF6552705F5FF7027
:1049F0003946824601F042FC01232946029A0B986F
:104A0000FFF7E3FD00287DD140E005F1430001F010
:104A10002DFC05F12400059901F028FC022105F187
:104A20002C0001F023FC012105F1300001F026FCEF
:104A3000062105F1320001F021FC85F8407085F86F
:104A400042A013220CA105F14700CBE7440000204F
:104A5000A8640008F5FFFF0FEBFE904D53444F5341
:104A6000352E30004E4F204E414D4520202020460F
:104A700041542020202020004E4F204E414D452003
:104A8000202020464154333220202000032E31D1F3
:104A9000029A01232946921D0B98FFF796FDBDF857
:104AA00030102846FBF725FC5249284601F0DEFB72
:104AB000514905F5F27001F0D9FBA8F1010105F5A6
:104AC000F47001F0D3FB022105F5F67001F0CEFB86
:104AD0003946504601F0D2FB029A01232946D21DE5
:104AE0000B98FFF772FD029A01232946521C0B987E
:104AF000FFF76BFDBDF8300009FB00F12846FBF71E
:104B0000F8FB00E054E00020DDF8388032E0032EAE
:104B100014D0012E21D06FF00701284601F0A6FB2A
:104B2000059F48464F4500D83846824603464246D0
:104B300029460B98FFF749FDD0BB10E06FF0070145
:104B4000284601F093FB4FF0FF31281D01F08EFB4A
:104B50006FF0704105F10800E0E72849DDE7BDF896
:104B600030102846FBF7C5FBD044B7EB0A07D8D175
:104B70000698401C06905845C9D3032E00D00A9CC5
:104B800048464C4501D9074600E027463B46424689
:104B900029460B98FFF719FD50B9B844E41BEFD133
:104BA000032E06D00D98B0F5803F04D3062205E011
:104BB0001BE00C2202E0022E19D0012215980007FA
:104BC0000BD40D981390002014902B4613A90B982A
:104BD000FFF7F4F900287FF453AD002211460B983B
:104BE000FFF7C2FC00283FF44BAD012038E504225A
:104BF000E4E700005252614172724161F8FFFF0028
:104C000017B581B0144602980090684600F0CCFEBB
:104C1000002802DA0B2004B010BD0B4A002352F822
:104C2000201011B142F820300B70019919B1487071
:104C30000B7042F820102CB1002201A902A800F04C
:104C4000A7FFE8E70020E6E7440000202DE9F7434E
:104C50008EB005000BD002F03F06324669460FA821
:104C600000F096FF04004FF0000804D0C9E00920CE
:104C700011B0BDE8F0830098019001A80F9900F0F1
:104C80007BFC040004D19DF82F00000600D506240B
:104C900016F01C0F4ED04CB1042C03D101A8FFF725
:104CA0003BFB044646F008065CB1AAE09DF80A000A
:104CB00010F0110F01D00724A3E0700701D50824DC
:104CC0009FE0300745D500F051FE07460898394669
:104CD0000E3001F0CBFA08983946163001F0C6FACA
:104CE0000899009800F01EFF089907462020C87216
:104CF00000220899009801F0A5FA089800211C30BC
:104D000001F0B4FA00980121017107B3D0F8349092
:104D10000022394601A801F064F9040071D1494626
:104D2000009801F079F804000098A7F101074761A5
:104D30000BD066E0D4BB9DF80A00C10601D504245F
:104D40005FE0B10701D5C007B5D1300701D546F006
:104D500040060098416B296208996962089900F041
:104D6000E1FEA86008981C3000F0EFFEC5F828802E
:104D7000E8600099296005F12C00C988A9802E748B
:104D800085F81180C5F81C804FF480518146C5F824
:104D90001480FBF7AEFAB00635D5EE689EB36E61AF
:104DA0000098A9684789808947430FE029E0284691
:104DB00000F068FD0146012800D80224481C02D0FA
:104DC000F61B1CB104E00124F61B01E0BE42EED844
:104DD000A961B4B900988289B6FBF2F302FB1362B1
:104DE0008AB1FEF710FF80B1009901238A89B6FBD2
:104DF000F2F20244EA6148784946FFF7D7FB10B166
:104E00000124C5F80080204632E70224F9E70FB4F8
:104E100001462DE9F04F9FB04FF0000B8DF878B0B0
:104E200002A801F0D6F80DF1A80A299810F8011B84
:104E30002990002970D0252903D002A801F097F805
:104E4000F3E720211D91002610F8014B37464FF063
:104E5000FF382990302C02D02D2C03D006E03021D1
:104E60001D9100E0022610F8014B29902A2C0FD149
:104E700029985AF8047B10F8014B29900CE007EBB5
:104E8000870004EB40072998303F10F8014B299028
:104E9000A4F130000928F2D92E2C1CD1299911F83F
:104EA000014B29912A2C02D04FF000080FE05AF84C
:104EB000048B11F8014B29910DE008EB880004EBFD
:104EC0004000A0F13008299810F8014B2990A4F176
:104ED00030000928F1D96C2C0CD1299846F0040631
:104EE00010F8014B29906C2C04D110F8014B46F0BE
:104EF00008062990002C9DD0652C62D00DDC622C18
:104F000019D004DC452C5CD0582C12D125E0632C40
:104F100025D0642C0DD11EE0D0E0732C22D004DC0F
:104F2000662C4ED06F2C04D107E0752C13D0782C52
:104F300013D0214681E7022000E008208146300797
:104F40006DD50AF1070020F00702642CF2E8020197
:104F500092466BD075E00A20F0E71020EEE71AF8D1
:104F6000041B6AE75AF8045B05B91EAD002400E093
:104F7000641C285D0028FBD1B8F1000008DB444523
:104F800006D9044604E002A81D9900F0F0FF641C55
:104F9000B00706D4BC42F6D303E002A86D1C00F0B3
:104FA000E6FF297839B1B8F10108F6D203E02021F3
:104FB00002A800F0DCFF2046641CB842BFF440AFFA
:104FC000F5E70AF10700CDE9008420F00700F0E8DA
:104FD0000223824615A800F01BFB15A8FBF79EF9DB
:104FE000044604E002A81D9900F0C1FF641CB0074C
:104FF00001D4BC42F6D3002515AE03E002A86D1C17
:1050000000F0B5FF715D0029F8D103E0202102A86E
:1050100000F0ADFF2046641CB842CFD2F6E75AF844
:10502000040B642C01D059460BE0C11701F000437A
:105030005BEA030205D00022404262EB010146F028
:10504000010600250DF154084A460023FBF78CF8B1
:10505000D2B2092A04D9782C13D007231A44D2B229
:10506000303208F805206D1C50EA010201D0202DD5
:10507000EAD3F00703D02D2108F805106D1C2C464B
:1050800006E02723EAE702A81D9900F070FF641CE0
:10509000B00701D4BC42F6D346466D1E02A8715D2E
:1050A00000F065FF002DF8D103E0202102A800F0F8
:1050B0005EFF2046641CB842AFD2F6E702A800F0BB
:1050C00073FF1FB0BDE8F00F5DF814FB2DE9F04F42
:1050D000884689B00021196099461546044604A9FE
:1050E00001F05DF9002812D1607C00280FD1207CEE
:1050F000C0070BD06169E0680127401A4FF0020A2F
:1051000004F12C0B854200D9054695E0072009B033
:10511000BDE8F08F049A61699089B1FBF0F300FB60
:105120001313002B69D1B1FBF0F65089401E0640E5
:1051300011D129B1A06A28B12046FEF751FD05E042
:10514000A06803E02046A16900F09CFB02281DD363
:10515000411C4DD0A061A1690498FEF754FDA8B18F
:105160003044009004988189B5FBF1F1059131B389
:10517000721841898A4201D9891B059140784146BC
:10518000059B009AFFF712FA90BB03E084F811A088
:105190000220BCE7207C00060CD5E1690098081AC3
:1051A0000599884206D204998A89594600FB0280F3
:1051B000FBF786F8049886890598464332E0E26951
:1051C00000998A4217D0217C090609D5407801232D
:1051D0005946FFF7FAF958B9207C00F07F00207497
:1051E0000498012359464078009AFFF7DFF910B17F
:1051F000677401208BE70098E061049861698089F9
:10520000B1FBF0F200FB1212861AAE4200D92E4614
:10521000B1FBF0F200FB12100119324640462C316E
:10522000FBF74EF8D9F80000AD1B8119C9F8001042
:105230006069B04430446061002D7FF46BAF0020A2
:1052400065E7F8B50446694601F0A9F800280ED1D3
:10525000217C4A060BD508060ED50098E269012389
:10526000407804F12C01FFF7B0F908B10120F8BD36
:10527000207C00F07F00207400F078FB0646216A55
:10528000009800F0C9FD0028F1D1656A2946E87A46
:1052900040F02000E872A268206800F0D3FF05F11A
:1052A0001C00E16800F0E2FF314605F1160000F055
:1052B000DDFF002105F1120000F0E0FF0098012160
:1052C000017100F0EDFF217C01F0BF012174F8BDF8
:1052D0002DE9F04F884689B000211960994615469E
:1052E000044606A901F05BF8002806D1607C00287E
:1052F00003D1207C800703D4072009B0BDE8F08FDC
:105300006069012742194FF0020A04F12C0B824216
:1053100000D2C543ACE0069A61699089B1FBF0F315
:1053200000FB1313002B79D1B1FBF0F65089401E1E
:10533000064018D129B1A06A38B12046FEF750FCCA
:1053400007E0A06838B9002100E0A1692046FEF717
:10535000A7FC00287DD001282FD0411C58D0A06187
:10536000A16801B9A060207C00060BD50698E2690F
:10537000012340785946FFF728F9C0BB207C00F094
:105380007F002074A1690698FEF73DFCA8B1304467
:10539000009006988189B5FBF1F1029141B3721832
:1053A00041898A4201D9891B029140784146029B7A
:1053B000009AFFF70AF9D0B903E084F811A002209F
:1053C0009BE7E1690098081A029988420AD2069977
:1053D0008A8900FB02815846FAF772FF207C00F0B0
:1053E0007F00207406988689029846432FE00FE0DC
:1053F000FFE7E26900998A420ED0E2686169914252
:105400000AD2407801235946009AFFF7CFF818B125
:105410006774012071E701E00098E0610698616916
:105420008089B1FBF0F200FB1212861AAE4200D95D
:105430002E46B1FBF0F200FB1210204432464146EA
:105440002C30FAF73DFF207C40F080002074AD1B2B
:1054500000E010E0D9F80000B0448119C9F800104C
:10546000606930446061E168884200D80846E060C5
:10547000002D7FF450AF207C40F0400020740020CD
:105480003BE7000010B50022094B802801D20246FC
:105490000BE0A1F58074B53C07D1FF2805D803EBDC
:1054A0004000A0F58050B0F8002F104610BD00005D
:1054B000B8640008024610B500200C4B802A01D2C7
:1054C00090B210BDB2F5803FFBD2A1F58074B53C1F
:1054D00004D010BD401C80B2802803D233F81010D5
:1054E0009142F7D18030C0B210BD0000B86400080E
:1054F00030B5B0F5803F1FD280B2B0F5805F01D2E9
:105500001B4900E01B4931F8022B002A14D09042BD
:1055100012D331F8024B230AE4B21519854221D97E
:10552000092B09D2DFE803F005090E101214161832
:105530001A00801A31F8100030BD811A01F0010103
:10554000401A0DE010380BE0203809E0303807E051
:105550001A3805E0083003E0503801E0A0F5E350C8
:1055600080B230BD002BCED101EB4401CBE700006F
:10557000B8650008AA67000873B504460568019875
:1055800001E0401C019001782F29FAD05C29F8D065
:105590000020A06001980078202807D2802084F89D
:1055A0002B0000212046FEF78DFF7CBD01A920467F
:1055B000FEF7E4FB0028F8D12046FEF7EFFD94F853
:1055C0002B1028B10428F0D14907EED405207CBD6A
:1055D0004907FCD4A079C006F8D5A9892069B0FB99
:1055E000F1F201FB120041192846383100F09AFA15
:1055F000A060DBE738B504468DF8000002230122E5
:1056000069460248FCF7E6FE204638BDDC00002073
:105610002DE9F84F4FF00008DDF8289016001D46E0
:1056200004464746C24601D0012000E0002028433E
:10563000684920F00040081AC00F02D066A0E8BBFD
:105640004FE05FEA090001D54FF00609002213463A
:1056500030462946FBF746F803D285F000452D2059
:1056600000E02B2082465D48B0EB450F00D136B3F9
:105670000B984FF0FF3B662837D000221346304688
:105680002946FBF72FF858D03046294600F0ECF9B0
:10569000A0EB090000F0B6F95A46FAF7DBFF3246F4
:1056A0002B46FAF74FFE06460D4600F0DDF9804620
:1056B000632806DC09F10700202801E005E002E08C
:1056C0002BDB47A000E047A030B3BAF1000F01D0B8
:1056D00004F801AB10F8011B04F8011B0178002944
:1056E000F8D100202070BDE8F88FC9F1000000F06B
:1056F00089F95A46FAF7AEFF32462B46FAF722FEF0
:1057000006460D4600F0B0F9070000D5002707EB6C
:105710000900C01C2028D4DA0FE06FF06200804539
:1057200000DA8046404600F06DF902460B463046EE
:105730002946FAF720FF06460D46BAF12D0F01D192
:1057400004F801ABC9F100000090781C02D12E20B2
:1057500004F8010B384600F055F90B4681468A469D
:10576000024630462946FAF706FFFAF79BFF8346C2
:10577000FAF787FF4A465346FAF78BFE32462B4626
:10578000FAF784FE06460BF1300004F8010B00988E
:105790007F1E0D468742D8DA0B986628A1D004F800
:1057A000010BB8F1000F03DAC8F100082D2000E06A
:1057B0002B2004F8010B0A2098FBF0F198FBF0F283
:1057C000303100FB128004F8011B303004F8010B6B
:1057D00087E700000000F07F4E614E000000E0FF10
:1057E0004F560000494E46002DE9FC410646086828
:1057F00030604868706008893081887AB072052B03
:1058000011D91F4C0CE00021921C1D46034665F384
:105810005F034008DD0300D56340491C1029F4D321
:1058200010880028EFD107244FEA0D0503F00F0080
:105830001B093030392800D9C01D2855641E01D0FD
:10584000002BF3D17E2028550027A4F1010806E0A3
:10585000FEF750FC10B1474506D07F1C7F1CA742C5
:1058600002D2F05D2028F3D1082C02D2285D641CFE
:1058700000E02020F0557F1C082FF5D3BDE8FC8107
:10588000211001002DE9F04104680D4602290BD3D7
:10589000E069A84208D920784FF0FF36012807D0E8
:1058A000022834D0032849D001263046BDE8F081D3
:1058B000A08905EB5507B7FBF0F0A16A014420462B
:1058C00000F0AAFA0028F0D1A089B7FBF0F100FBA4
:1058D00011717F1CB7FBF0F0214491F83880A16A68
:1058E0000144204600F098FA0028DED1A089B7FBD9
:1058F000F0F100FB1170204490F8381048EA0120C4
:10590000E90701D00609D0E7C0F30B06CDE7A0896F
:10591000A16A4008B5FBF0F00144204600F07CFA93
:105920000028C2D1A1896800B0FBF1F201FB12008E
:105930002044383000F014F90646B6E7A089A16A81
:105940008008B5FBF0F00144204600F065FA00281D
:10595000ABD1A189A800B0FBF1F201FB12002044F9
:10596000383000F0F2F820F070469EE708B5FBF7FB
:10597000F9F800906846FAF759FC017D028A490659
:105980004FF4001303EB4252A1F1F041114382891D
:1059900041EA0241826841EAC2214268006841EA64
:1059A000421141EA500008BD10B504464FF0FF30E7
:1059B00021680A0011D000BF11F8013B202B0DD344
:1059C0003A2BF9D11378303B092B06D8921C8A4226
:1059D00003D1022B01DA1846216010BD002010BD52
:1059E00001460148FCF746B8A426002010B504483B
:1059F000FCF752F8042801D0012010BD002010BD92
:105A0000A42600202DE9F041044600201349144D3E
:105A1000144E0CE0052C4FF0000204DB2B46FAF785
:105A200038FD641F03E03346FAF733FD641E002C93
:105A3000F0DC6FF00407002C0DDABC424FF00002DE
:105A400004DC2B46FAF797FD641DF4E73346FAF7BA
:105A500092FD641CEFE7BDE8F08100000000F03F1C
:105A6000006AF840000024402DE9F05F04460D462E
:105A70000026DFF89C80274F19E00022434620468D
:105A80002946FAF747FE4FF0000208D84346204661
:105A90002946FAF770FD04460D46761D07E03B46A1
:105AA00020462946FAF767FD04460D46761C00227B
:105AB0003B462046FAF72EFEDFD9DFF85CA0DFF880
:105AC0005CB0DFF85C9000224B4620462946FAF78E
:105AD00009FE1AD252465B4620462946FAF702FED4
